{
  "address": "0x0662B8E5ac3D59e02B0e0d8A6B9317eD3F4676C3",
  "abi": [
    {
      "inputs": [
        {
          "internalType": "string[3]",
          "name": "genTokenUris",
          "type": "string[3]"
        },
        {
          "internalType": "uint256",
          "name": "maxSupply",
          "type": "uint256"
        }
      ],
      "stateMutability": "nonpayable",
      "type": "constructor"
    },
    {
      "inputs": [],
      "name": "MadWizard__AlreadyInitialized",
      "type": "error"
    },
    {
      "inputs": [],
      "name": "MadWizard__MaxSupplyReached",
      "type": "error"
    },
    {
      "inputs": [],
      "name": "MadWizard__RangeOutOfBounds",
      "type": "error"
    },
    {
      "inputs": [],
      "name": "MadWizard__TransferFailed",
      "type": "error"
    },
    {
      "anonymous": false,
      "inputs": [
        {
          "indexed": true,
          "internalType": "address",
          "name": "owner",
          "type": "address"
        },
        {
          "indexed": true,
          "internalType": "address",
          "name": "approved",
          "type": "address"
        },
        {
          "indexed": true,
          "internalType": "uint256",
          "name": "tokenId",
          "type": "uint256"
        }
      ],
      "name": "Approval",
      "type": "event"
    },
    {
      "anonymous": false,
      "inputs": [
        {
          "indexed": true,
          "internalType": "address",
          "name": "owner",
          "type": "address"
        },
        {
          "indexed": true,
          "internalType": "address",
          "name": "operator",
          "type": "address"
        },
        {
          "indexed": false,
          "internalType": "bool",
          "name": "approved",
          "type": "bool"
        }
      ],
      "name": "ApprovalForAll",
      "type": "event"
    },
    {
      "anonymous": false,
      "inputs": [
        {
          "indexed": false,
          "internalType": "uint256",
          "name": "_fromTokenId",
          "type": "uint256"
        },
        {
          "indexed": false,
          "internalType": "uint256",
          "name": "_toTokenId",
          "type": "uint256"
        }
      ],
      "name": "BatchMetadataUpdate",
      "type": "event"
    },
    {
      "anonymous": false,
      "inputs": [
        {
          "indexed": false,
          "internalType": "uint256",
          "name": "_tokenId",
          "type": "uint256"
        }
      ],
      "name": "MetadataUpdate",
      "type": "event"
    },
    {
      "anonymous": false,
      "inputs": [
        {
          "indexed": true,
          "internalType": "address",
          "name": "minter",
          "type": "address"
        },
        {
          "indexed": true,
          "internalType": "uint256",
          "name": "tokenId",
          "type": "uint256"
        }
      ],
      "name": "NftMinted",
      "type": "event"
    },
    {
      "anonymous": false,
      "inputs": [
        {
          "indexed": true,
          "internalType": "address",
          "name": "previousOwner",
          "type": "address"
        },
        {
          "indexed": true,
          "internalType": "address",
          "name": "newOwner",
          "type": "address"
        }
      ],
      "name": "OwnershipTransferred",
      "type": "event"
    },
    {
      "anonymous": false,
      "inputs": [
        {
          "indexed": true,
          "internalType": "address",
          "name": "from",
          "type": "address"
        },
        {
          "indexed": true,
          "internalType": "address",
          "name": "to",
          "type": "address"
        },
        {
          "indexed": true,
          "internalType": "uint256",
          "name": "tokenId",
          "type": "uint256"
        }
      ],
      "name": "Transfer",
      "type": "event"
    },
    {
      "inputs": [],
      "name": "BLAST",
      "outputs": [
        {
          "internalType": "contract IBlast",
          "name": "",
          "type": "address"
        }
      ],
      "stateMutability": "view",
      "type": "function"
    },
    {
      "inputs": [],
      "name": "USDB",
      "outputs": [
        {
          "internalType": "contract IERC20Rebasing",
          "name": "",
          "type": "address"
        }
      ],
      "stateMutability": "view",
      "type": "function"
    },
    {
      "inputs": [],
      "name": "WETH",
      "outputs": [
        {
          "internalType": "contract IERC20Rebasing",
          "name": "",
          "type": "address"
        }
      ],
      "stateMutability": "view",
      "type": "function"
    },
    {
      "inputs": [
        {
          "internalType": "address",
          "name": "to",
          "type": "address"
        },
        {
          "internalType": "uint256",
          "name": "tokenId",
          "type": "uint256"
        }
      ],
      "name": "approve",
      "outputs": [],
      "stateMutability": "nonpayable",
      "type": "function"
    },
    {
      "inputs": [
        {
          "internalType": "address",
          "name": "owner",
          "type": "address"
        }
      ],
      "name": "balanceOf",
      "outputs": [
        {
          "internalType": "uint256",
          "name": "",
          "type": "uint256"
        }
      ],
      "stateMutability": "view",
      "type": "function"
    },
    {
      "inputs": [
        {
          "internalType": "address",
          "name": "recipient",
          "type": "address"
        }
      ],
      "name": "claimMyContractsAllYield",
      "outputs": [],
      "stateMutability": "nonpayable",
      "type": "function"
    },
    {
      "inputs": [],
      "name": "claimMyContractsGas",
      "outputs": [],
      "stateMutability": "nonpayable",
      "type": "function"
    },
    {
      "inputs": [
        {
          "internalType": "address",
          "name": "recipient",
          "type": "address"
        },
        {
          "internalType": "uint256",
          "name": "amount",
          "type": "uint256"
        }
      ],
      "name": "claimMyContractsYield",
      "outputs": [],
      "stateMutability": "nonpayable",
      "type": "function"
    },
    {
      "inputs": [
        {
          "internalType": "uint256",
          "name": "tokenId",
          "type": "uint256"
        }
      ],
      "name": "getApproved",
      "outputs": [
        {
          "internalType": "address",
          "name": "",
          "type": "address"
        }
      ],
      "stateMutability": "view",
      "type": "function"
    },
    {
      "inputs": [],
      "name": "getChanceArray",
      "outputs": [
        {
          "internalType": "uint256[3]",
          "name": "",
          "type": "uint256[3]"
        }
      ],
      "stateMutability": "pure",
      "type": "function"
    },
    {
      "inputs": [
        {
          "internalType": "uint256",
          "name": "moddedRng",
          "type": "uint256"
        }
      ],
      "name": "getDestinyFromModdedRng",
      "outputs": [
        {
          "internalType": "enum MadWizard.Destiny",
          "name": "",
          "type": "uint8"
        }
      ],
      "stateMutability": "pure",
      "type": "function"
    },
    {
      "inputs": [],
      "name": "getInitialized",
      "outputs": [
        {
          "internalType": "bool",
          "name": "",
          "type": "bool"
        }
      ],
      "stateMutability": "view",
      "type": "function"
    },
    {
      "inputs": [],
      "name": "getTokenCounter",
      "outputs": [
        {
          "internalType": "uint256",
          "name": "",
          "type": "uint256"
        }
      ],
      "stateMutability": "view",
      "type": "function"
    },
    {
      "inputs": [
        {
          "internalType": "uint256",
          "name": "index",
          "type": "uint256"
        }
      ],
      "name": "getgenTokenUris",
      "outputs": [
        {
          "internalType": "string",
          "name": "",
          "type": "string"
        }
      ],
      "stateMutability": "view",
      "type": "function"
    },
    {
      "inputs": [
        {
          "internalType": "address",
          "name": "owner",
          "type": "address"
        },
        {
          "internalType": "address",
          "name": "operator",
          "type": "address"
        }
      ],
      "name": "isApprovedForAll",
      "outputs": [
        {
          "internalType": "bool",
          "name": "",
          "type": "bool"
        }
      ],
      "stateMutability": "view",
      "type": "function"
    },
    {
      "inputs": [],
      "name": "name",
      "outputs": [
        {
          "internalType": "string",
          "name": "",
          "type": "string"
        }
      ],
      "stateMutability": "view",
      "type": "function"
    },
    {
      "inputs": [],
      "name": "owner",
      "outputs": [
        {
          "internalType": "address",
          "name": "",
          "type": "address"
        }
      ],
      "stateMutability": "view",
      "type": "function"
    },
    {
      "inputs": [
        {
          "internalType": "uint256",
          "name": "tokenId",
          "type": "uint256"
        }
      ],
      "name": "ownerOf",
      "outputs": [
        {
          "internalType": "address",
          "name": "",
          "type": "address"
        }
      ],
      "stateMutability": "view",
      "type": "function"
    },
    {
      "inputs": [],
      "name": "renounceOwnership",
      "outputs": [],
      "stateMutability": "nonpayable",
      "type": "function"
    },
    {
      "inputs": [],
      "name": "requestNft",
      "outputs": [],
      "stateMutability": "payable",
      "type": "function"
    },
    {
      "inputs": [
        {
          "internalType": "address",
          "name": "from",
          "type": "address"
        },
        {
          "internalType": "address",
          "name": "to",
          "type": "address"
        },
        {
          "internalType": "uint256",
          "name": "tokenId",
          "type": "uint256"
        }
      ],
      "name": "safeTransferFrom",
      "outputs": [],
      "stateMutability": "nonpayable",
      "type": "function"
    },
    {
      "inputs": [
        {
          "internalType": "address",
          "name": "from",
          "type": "address"
        },
        {
          "internalType": "address",
          "name": "to",
          "type": "address"
        },
        {
          "internalType": "uint256",
          "name": "tokenId",
          "type": "uint256"
        },
        {
          "internalType": "bytes",
          "name": "data",
          "type": "bytes"
        }
      ],
      "name": "safeTransferFrom",
      "outputs": [],
      "stateMutability": "nonpayable",
      "type": "function"
    },
    {
      "inputs": [
        {
          "internalType": "address",
          "name": "operator",
          "type": "address"
        },
        {
          "internalType": "bool",
          "name": "approved",
          "type": "bool"
        }
      ],
      "name": "setApprovalForAll",
      "outputs": [],
      "stateMutability": "nonpayable",
      "type": "function"
    },
    {
      "inputs": [
        {
          "internalType": "bytes4",
          "name": "interfaceId",
          "type": "bytes4"
        }
      ],
      "name": "supportsInterface",
      "outputs": [
        {
          "internalType": "bool",
          "name": "",
          "type": "bool"
        }
      ],
      "stateMutability": "view",
      "type": "function"
    },
    {
      "inputs": [],
      "name": "symbol",
      "outputs": [
        {
          "internalType": "string",
          "name": "",
          "type": "string"
        }
      ],
      "stateMutability": "view",
      "type": "function"
    },
    {
      "inputs": [
        {
          "internalType": "uint256",
          "name": "tokenId",
          "type": "uint256"
        }
      ],
      "name": "tokenURI",
      "outputs": [
        {
          "internalType": "string",
          "name": "",
          "type": "string"
        }
      ],
      "stateMutability": "view",
      "type": "function"
    },
    {
      "inputs": [
        {
          "internalType": "address",
          "name": "from",
          "type": "address"
        },
        {
          "internalType": "address",
          "name": "to",
          "type": "address"
        },
        {
          "internalType": "uint256",
          "name": "tokenId",
          "type": "uint256"
        }
      ],
      "name": "transferFrom",
      "outputs": [],
      "stateMutability": "nonpayable",
      "type": "function"
    },
    {
      "inputs": [
        {
          "internalType": "address",
          "name": "newOwner",
          "type": "address"
        }
      ],
      "name": "transferOwnership",
      "outputs": [],
      "stateMutability": "nonpayable",
      "type": "function"
    },
    {
      "inputs": [],
      "name": "withdraw",
      "outputs": [],
      "stateMutability": "nonpayable",
      "type": "function"
    }
  ],
  "transactionHash": "0x037958cfa5d6503aef09935a9d28ea5cc2ed6d9bcd90c7474cf06e1503cf6254",
  "args": [
    [
      "ipfs://QmTMX9unFh63hB5roi3pkbqhhh4WeGYPVbtAp26KzGovry",
      "ipfs://QmcX2Ecd3JeDqFbwEszt2VFdGaHRWGwLWurQMpvXjA8YWp",
      "ipfs://QmdQynkwAe81AKsWR6cFwYaFAxn8aGfvxz459LtbBNMYoe"
    ],
    999
  ],
  "numDeployments": 1,
  "solcInputHash": "86d67850c266ecd0415e32b7536c2956",
  "bytecode": "0x60a06040523480156200001157600080fd5b50604051620049983803806200499883398181016040528101906200003791906200089c565b6040518060400160405280600b81526020017f4d616457697a7a617264730000000000000000000000000000000000000000008152506040518060400160405280600481526020017f4d57495a000000000000000000000000000000000000000000000000000000008152508160009081620000b4919062000b43565b508060019081620000c6919062000b43565b505050620000e9620000dd620003af60201b60201c565b620003b760201b60201c565b620000fa826200047d60201b60201c565b6000600881905550806080818152505073420000000000000000000000000000000000002273ffffffffffffffffffffffffffffffffffffffff16631a33757d60026040518263ffffffff1660e01b81526004016200015a919062000caa565b6020604051808303816000875af11580156200017a573d6000803e3d6000fd5b505050506040513d601f19601f82011682018060405250810190620001a0919062000cc7565b5073420000000000000000000000000000000000002373ffffffffffffffffffffffffffffffffffffffff16631a33757d60026040518263ffffffff1660e01b8152600401620001f1919062000caa565b6020604051808303816000875af115801562000211573d6000803e3d6000fd5b505050506040513d601f19601f8201168201806040525081019062000237919062000cc7565b5073430000000000000000000000000000000000000273ffffffffffffffffffffffffffffffffffffffff1663f098767a6040518163ffffffff1660e01b8152600401600060405180830381600087803b1580156200029557600080fd5b505af1158015620002aa573d6000803e3d6000fd5b5050505073430000000000000000000000000000000000000273ffffffffffffffffffffffffffffffffffffffff16634e606c476040518163ffffffff1660e01b8152600401600060405180830381600087803b1580156200030b57600080fd5b505af115801562000320573d6000803e3d6000fd5b5050505073430000000000000000000000000000000000000273ffffffffffffffffffffffffffffffffffffffff1663eb864698336040518263ffffffff1660e01b815260040162000373919062000d3e565b600060405180830381600087803b1580156200038e57600080fd5b505af1158015620003a3573d6000803e3d6000fd5b50505050505062000d5b565b600033905090565b6000600760009054906101000a900473ffffffffffffffffffffffffffffffffffffffff16905081600760006101000a81548173ffffffffffffffffffffffffffffffffffffffff021916908373ffffffffffffffffffffffffffffffffffffffff1602179055508173ffffffffffffffffffffffffffffffffffffffff168173ffffffffffffffffffffffffffffffffffffffff167f8be0079c531659141344cd1fd0a4f28419497f9722a3daafe3b4186f6b6457e060405160405180910390a35050565b600a60009054906101000a900460ff1615620004c5576040517f0f78dda000000000000000000000000000000000000000000000000000000000815260040160405180910390fd5b806009906003620004d8929190620004f7565b506001600a60006101000a81548160ff02191690831515021790555050565b82805482825590600052602060002090810192821562000544579160200282015b828111156200054357825182908162000532919062000b43565b509160200191906001019062000518565b5b50905062000553919062000557565b5090565b5b808211156200057b57600081816200057191906200057f565b5060010162000558565b5090565b5080546200058d906200093c565b6000825580601f10620005a15750620005c2565b601f016020900490600052602060002090810190620005c19190620005c5565b5b50565b5b80821115620005e0576000816000905550600101620005c6565b5090565b6000604051905090565b600080fd5b600080fd5b600080fd5b6000601f19601f8301169050919050565b7f4e487b7100000000000000000000000000000000000000000000000000000000600052604160045260246000fd5b6200064882620005fd565b810181811067ffffffffffffffff821117156200066a57620006696200060e565b5b80604052505050565b60006200067f620005e4565b90506200068d82826200063d565b919050565b600067ffffffffffffffff821115620006b057620006af6200060e565b5b602082029050919050565b600080fd5b600080fd5b600067ffffffffffffffff821115620006e357620006e26200060e565b5b620006ee82620005fd565b9050602081019050919050565b60005b838110156200071b578082015181840152602081019050620006fe565b60008484015250505050565b60006200073e6200073884620006c5565b62000673565b9050828152602081018484840111156200075d576200075c620006c0565b5b6200076a848285620006fb565b509392505050565b600082601f8301126200078a5762000789620005f8565b5b81516200079c84826020860162000727565b91505092915050565b6000620007bc620007b68462000692565b62000673565b90508060208402830185811115620007d957620007d8620006bb565b5b835b818110156200082757805167ffffffffffffffff811115620008025762000801620005f8565b5b80860162000811898262000772565b85526020850194505050602081019050620007db565b5050509392505050565b600082601f830112620008495762000848620005f8565b5b600362000858848285620007a5565b91505092915050565b6000819050919050565b620008768162000861565b81146200088257600080fd5b50565b60008151905062000896816200086b565b92915050565b60008060408385031215620008b657620008b5620005ee565b5b600083015167ffffffffffffffff811115620008d757620008d6620005f3565b5b620008e58582860162000831565b9250506020620008f88582860162000885565b9150509250929050565b600081519050919050565b7f4e487b7100000000000000000000000000000000000000000000000000000000600052602260045260246000fd5b600060028204905060018216806200095557607f821691505b6020821081036200096b576200096a6200090d565b5b50919050565b60008190508160005260206000209050919050565b60006020601f8301049050919050565b600082821b905092915050565b600060088302620009d57fffffffffffffffffffffffffffffffffffffffffffffffffffffffffffffffff8262000996565b620009e1868362000996565b95508019841693508086168417925050509392505050565b6000819050919050565b600062000a2462000a1e62000a188462000861565b620009f9565b62000861565b9050919050565b6000819050919050565b62000a408362000a03565b62000a5862000a4f8262000a2b565b848454620009a3565b825550505050565b600090565b62000a6f62000a60565b62000a7c81848462000a35565b505050565b5b8181101562000aa45762000a9860008262000a65565b60018101905062000a82565b5050565b601f82111562000af35762000abd8162000971565b62000ac88462000986565b8101602085101562000ad8578190505b62000af062000ae78562000986565b83018262000a81565b50505b505050565b600082821c905092915050565b600062000b186000198460080262000af8565b1980831691505092915050565b600062000b33838362000b05565b9150826002028217905092915050565b62000b4e8262000902565b67ffffffffffffffff81111562000b6a5762000b696200060e565b5b62000b7682546200093c565b62000b8382828562000aa8565b600060209050601f83116001811462000bbb576000841562000ba6578287015190505b62000bb2858262000b25565b86555062000c22565b601f19841662000bcb8662000971565b60005b8281101562000bf55784890151825560018201915060208501945060208101905062000bce565b8683101562000c15578489015162000c11601f89168262000b05565b8355505b6001600288020188555050505b505050505050565b7f4e487b7100000000000000000000000000000000000000000000000000000000600052602160045260246000fd5b6003811062000c6d5762000c6c62000c2a565b5b50565b600081905062000c808262000c59565b919050565b600062000c928262000c70565b9050919050565b62000ca48162000c85565b82525050565b600060208201905062000cc1600083018462000c99565b92915050565b60006020828403121562000ce05762000cdf620005ee565b5b600062000cf08482850162000885565b91505092915050565b600073ffffffffffffffffffffffffffffffffffffffff82169050919050565b600062000d268262000cf9565b9050919050565b62000d388162000d19565b82525050565b600060208201905062000d55600083018462000d2d565b92915050565b608051613c2162000d776000396000610e240152613c216000f3fe6080604052600436106101c25760003560e01c806377d5d2dc116100f7578063b88d4fde11610095578063e985e9c511610064578063e985e9c51461060f578063ee89dab41461064c578063f09ce7f614610677578063f2fde38b146106a0576101c2565b8063b88d4fde14610543578063be2abee11461056c578063c87b56dd14610595578063ca8579bc146105d2576101c2565b806397d75776116100d157806397d75776146104ba578063a22cb465146104e5578063aa1524911461050e578063ad5c464814610518576101c2565b806377d5d2dc1461044d5780638da5cb5b1461046457806395d89b411461048f576101c2565b80633ccfd60b116101645780636352211e1161013e5780636352211e146103915780636e02007d146103ce57806370a08231146103f9578063715018a614610436576101c2565b80633ccfd60b1461032657806342842e0e1461033d5780635dacf5f414610366576101c2565b8063095ea7b3116101a0578063095ea7b31461026c57806314d808401461029557806323b872dd146102d257806331a0edec146102fb576101c2565b806301ffc9a7146101c757806306fdde0314610204578063081812fc1461022f575b600080fd5b3480156101d357600080fd5b506101ee60048036038101906101e99190612672565b6106c9565b6040516101fb91906126ba565b60405180910390f35b34801561021057600080fd5b5061021961072a565b6040516102269190612765565b60405180910390f35b34801561023b57600080fd5b50610256600480360381019061025191906127bd565b6107bc565b604051610263919061282b565b60405180910390f35b34801561027857600080fd5b50610293600480360381019061028e9190612872565b610802565b005b3480156102a157600080fd5b506102bc60048036038101906102b791906127bd565b610919565b6040516102c99190612765565b60405180910390f35b3480156102de57600080fd5b506102f960048036038101906102f491906128b2565b6109c9565b005b34801561030757600080fd5b50610310610a29565b60405161031d9190612964565b60405180910390f35b34801561033257600080fd5b5061033b610a41565b005b34801561034957600080fd5b50610364600480360381019061035f91906128b2565b610af5565b005b34801561037257600080fd5b5061037b610b15565b6040516103889190612a2a565b60405180910390f35b34801561039d57600080fd5b506103b860048036038101906103b391906127bd565b610b40565b6040516103c5919061282b565b60405180910390f35b3480156103da57600080fd5b506103e3610bc6565b6040516103f09190612a54565b60405180910390f35b34801561040557600080fd5b50610420600480360381019061041b9190612a6f565b610bd0565b60405161042d9190612a54565b60405180910390f35b34801561044257600080fd5b5061044b610c87565b005b34801561045957600080fd5b50610462610c9b565b005b34801561047057600080fd5b50610479610d38565b604051610486919061282b565b60405180910390f35b34801561049b57600080fd5b506104a4610d62565b6040516104b19190612765565b60405180910390f35b3480156104c657600080fd5b506104cf610df4565b6040516104dc9190612abd565b60405180910390f35b3480156104f157600080fd5b5061050c60048036038101906105079190612b04565b610e0c565b005b610516610e22565b005b34801561052457600080fd5b5061052d610fe1565b60405161053a9190612964565b60405180910390f35b34801561054f57600080fd5b5061056a60048036038101906105659190612c79565b610ff9565b005b34801561057857600080fd5b50610593600480360381019061058e9190612872565b61105b565b005b3480156105a157600080fd5b506105bc60048036038101906105b791906127bd565b6110fc565b6040516105c99190612765565b60405180910390f35b3480156105de57600080fd5b506105f960048036038101906105f491906127bd565b61120e565b6040516106069190612d73565b60405180910390f35b34801561061b57600080fd5b5061063660048036038101906106319190612d8e565b6112da565b60405161064391906126ba565b60405180910390f35b34801561065857600080fd5b5061066161136e565b60405161066e91906126ba565b60405180910390f35b34801561068357600080fd5b5061069e60048036038101906106999190612a6f565b611385565b005b3480156106ac57600080fd5b506106c760048036038101906106c29190612a6f565b611423565b005b6000634906490660e01b7bffffffffffffffffffffffffffffffffffffffffffffffffffffffff1916827bffffffffffffffffffffffffffffffffffffffffffffffffffffffff191614806107235750610722826114a6565b5b9050919050565b60606000805461073990612dfd565b80601f016020809104026020016040519081016040528092919081815260200182805461076590612dfd565b80156107b25780601f10610787576101008083540402835291602001916107b2565b820191906000526020600020905b81548152906001019060200180831161079557829003601f168201915b5050505050905090565b60006107c782611588565b6004600083815260200190815260200160002060009054906101000a900473ffffffffffffffffffffffffffffffffffffffff169050919050565b600061080d82610b40565b90508073ffffffffffffffffffffffffffffffffffffffff168373ffffffffffffffffffffffffffffffffffffffff160361087d576040517f08c379a000000000000000000000000000000000000000000000000000000000815260040161087490612ea0565b60405180910390fd5b8073ffffffffffffffffffffffffffffffffffffffff1661089c6115d3565b73ffffffffffffffffffffffffffffffffffffffff1614806108cb57506108ca816108c56115d3565b6112da565b5b61090a576040517f08c379a000000000000000000000000000000000000000000000000000000000815260040161090190612f32565b60405180910390fd5b61091483836115db565b505050565b60606009828154811061092f5761092e612f52565b5b90600052602060002001805461094490612dfd565b80601f016020809104026020016040519081016040528092919081815260200182805461097090612dfd565b80156109bd5780601f10610992576101008083540402835291602001916109bd565b820191906000526020600020905b8154815290600101906020018083116109a057829003601f168201915b50505050509050919050565b6109da6109d46115d3565b82611694565b610a19576040517f08c379a0000000000000000000000000000000000000000000000000000000008152600401610a1090612ff3565b60405180910390fd5b610a24838383611729565b505050565b73420000000000000000000000000000000000002281565b610a49611a22565b600047905060003373ffffffffffffffffffffffffffffffffffffffff1682604051610a7490613044565b60006040518083038185875af1925050503d8060008114610ab1576040519150601f19603f3d011682016040523d82523d6000602084013e610ab6565b606091505b5050905080610af1576040517f7e942e6a00000000000000000000000000000000000000000000000000000000815260040160405180910390fd5b5050565b610b1083838360405180602001604052806000815250610ff9565b505050565b610b1d6125e4565b6040518060600160405280603c8152602001605a81526020016064815250905090565b600080610b4c83611aa0565b9050600073ffffffffffffffffffffffffffffffffffffffff168173ffffffffffffffffffffffffffffffffffffffff1603610bbd576040517f08c379a0000000000000000000000000000000000000000000000000000000008152600401610bb4906130a5565b60405180910390fd5b80915050919050565b6000600854905090565b60008073ffffffffffffffffffffffffffffffffffffffff168273ffffffffffffffffffffffffffffffffffffffff1603610c40576040517f08c379a0000000000000000000000000000000000000000000000000000000008152600401610c3790613137565b60405180910390fd5b600360008373ffffffffffffffffffffffffffffffffffffffff1673ffffffffffffffffffffffffffffffffffffffff168152602001908152602001600020549050919050565b610c8f611a22565b610c996000611add565b565b610ca3611a22565b73430000000000000000000000000000000000000273ffffffffffffffffffffffffffffffffffffffff1663954fa5ee30336040518363ffffffff1660e01b8152600401610cf2929190613157565b6020604051808303816000875af1158015610d11573d6000803e3d6000fd5b505050506040513d601f19601f82011682018060405250810190610d359190613195565b50565b6000600760009054906101000a900473ffffffffffffffffffffffffffffffffffffffff16905090565b606060018054610d7190612dfd565b80601f0160208091040260200160405190810160405280929190818152602001828054610d9d90612dfd565b8015610dea5780601f10610dbf57610100808354040283529160200191610dea565b820191906000526020600020905b815481529060010190602001808311610dcd57829003601f168201915b5050505050905090565b73430000000000000000000000000000000000000281565b610e1e610e176115d3565b8383611ba3565b5050565b7f000000000000000000000000000000000000000000000000000000000000000060085410610e7d576040517fd38f962500000000000000000000000000000000000000000000000000000000815260040160405180910390fd5b6000339050600060085490506001600854610e9891906131f1565b6008819055506000610ea8611d0f565b90506000606482610eb99190613254565b90506000610ec68261120e565b9050610ed28585611d4d565b610f94846009836002811115610eeb57610eea612cfc565b5b81548110610efc57610efb612f52565b5b906000526020600020018054610f1190612dfd565b80601f0160208091040260200160405190810160405280929190818152602001828054610f3d90612dfd565b8015610f8a5780601f10610f5f57610100808354040283529160200191610f8a565b820191906000526020600020905b815481529060010190602001808311610f6d57829003601f168201915b5050505050611d6b565b6008548573ffffffffffffffffffffffffffffffffffffffff167ff2b290a76feb54be358b555507421d765609171aefa0646f109a653228ff81b860405160405180910390a35050505050565b73420000000000000000000000000000000000002381565b61100a6110046115d3565b83611694565b611049576040517f08c379a000000000000000000000000000000000000000000000000000000000815260040161104090612ff3565b60405180910390fd5b61105584848484611e0f565b50505050565b611063611a22565b73430000000000000000000000000000000000000273ffffffffffffffffffffffffffffffffffffffff1663f97196623084846040518463ffffffff1660e01b81526004016110b493929190613285565b6020604051808303816000875af11580156110d3573d6000803e3d6000fd5b505050506040513d601f19601f820116820180604052508101906110f79190613195565b505050565b606061110782611588565b600060066000848152602001908152602001600020805461112790612dfd565b80601f016020809104026020016040519081016040528092919081815260200182805461115390612dfd565b80156111a05780601f10611175576101008083540402835291602001916111a0565b820191906000526020600020905b81548152906001019060200180831161118357829003601f168201915b5050505050905060006111b1611e6b565b905060008151036111c6578192505050611209565b6000825111156111fb5780826040516020016111e39291906132f8565b60405160208183030381529060405292505050611209565b61120484611e82565b925050505b919050565b60008060009050600061121f610b15565b905060005b60038110156112a257828510158015611253575081816003811061124b5761124a612f52565b5b602002015185105b156112755780600281111561126b5761126a612cfc565b5b93505050506112d5565b81816003811061128857611287612f52565b5b60200201519250808061129a9061331c565b915050611224565b506040517fd272f90400000000000000000000000000000000000000000000000000000000815260040160405180910390fd5b919050565b6000600560008473ffffffffffffffffffffffffffffffffffffffff1673ffffffffffffffffffffffffffffffffffffffff16815260200190815260200160002060008373ffffffffffffffffffffffffffffffffffffffff1673ffffffffffffffffffffffffffffffffffffffff16815260200190815260200160002060009054906101000a900460ff16905092915050565b6000600a60009054906101000a900460ff16905090565b61138d611a22565b73430000000000000000000000000000000000000273ffffffffffffffffffffffffffffffffffffffff1663860043b630836040518363ffffffff1660e01b81526004016113dc929190613157565b6020604051808303816000875af11580156113fb573d6000803e3d6000fd5b505050506040513d601f19601f8201168201806040525081019061141f9190613195565b5050565b61142b611a22565b600073ffffffffffffffffffffffffffffffffffffffff168173ffffffffffffffffffffffffffffffffffffffff160361149a576040517f08c379a0000000000000000000000000000000000000000000000000000000008152600401611491906133d6565b60405180910390fd5b6114a381611add565b50565b60007f80ac58cd000000000000000000000000000000000000000000000000000000007bffffffffffffffffffffffffffffffffffffffffffffffffffffffff1916827bffffffffffffffffffffffffffffffffffffffffffffffffffffffff1916148061157157507f5b5e139f000000000000000000000000000000000000000000000000000000007bffffffffffffffffffffffffffffffffffffffffffffffffffffffff1916827bffffffffffffffffffffffffffffffffffffffffffffffffffffffff1916145b80611581575061158082611eea565b5b9050919050565b61159181611f54565b6115d0576040517f08c379a00000000000000000000000000000000000000000000000000000000081526004016115c7906130a5565b60405180910390fd5b50565b600033905090565b816004600083815260200190815260200160002060006101000a81548173ffffffffffffffffffffffffffffffffffffffff021916908373ffffffffffffffffffffffffffffffffffffffff160217905550808273ffffffffffffffffffffffffffffffffffffffff1661164e83610b40565b73ffffffffffffffffffffffffffffffffffffffff167f8c5be1e5ebec7d5bd14f71427d1e84f3dd0314c0f7b2291e5b200ac8c7c3b92560405160405180910390a45050565b6000806116a083610b40565b90508073ffffffffffffffffffffffffffffffffffffffff168473ffffffffffffffffffffffffffffffffffffffff1614806116e257506116e181856112da565b5b8061172057508373ffffffffffffffffffffffffffffffffffffffff16611708846107bc565b73ffffffffffffffffffffffffffffffffffffffff16145b91505092915050565b8273ffffffffffffffffffffffffffffffffffffffff1661174982610b40565b73ffffffffffffffffffffffffffffffffffffffff161461179f576040517f08c379a000000000000000000000000000000000000000000000000000000000815260040161179690613468565b60405180910390fd5b600073ffffffffffffffffffffffffffffffffffffffff168273ffffffffffffffffffffffffffffffffffffffff160361180e576040517f08c379a0000000000000000000000000000000000000000000000000000000008152600401611805906134fa565b60405180910390fd5b61181b8383836001611f95565b8273ffffffffffffffffffffffffffffffffffffffff1661183b82610b40565b73ffffffffffffffffffffffffffffffffffffffff1614611891576040517f08c379a000000000000000000000000000000000000000000000000000000000815260040161188890613468565b60405180910390fd5b6004600082815260200190815260200160002060006101000a81549073ffffffffffffffffffffffffffffffffffffffff02191690556001600360008573ffffffffffffffffffffffffffffffffffffffff1673ffffffffffffffffffffffffffffffffffffffff168152602001908152602001600020600082825403925050819055506001600360008473ffffffffffffffffffffffffffffffffffffffff1673ffffffffffffffffffffffffffffffffffffffff16815260200190815260200160002060008282540192505081905550816002600083815260200190815260200160002060006101000a81548173ffffffffffffffffffffffffffffffffffffffff021916908373ffffffffffffffffffffffffffffffffffffffff160217905550808273ffffffffffffffffffffffffffffffffffffffff168473ffffffffffffffffffffffffffffffffffffffff167fddf252ad1be2c89b69c2b068fc378daa952ba7f163c4a11628f55a4df523b3ef60405160405180910390a4611a1d8383836001611f9b565b505050565b611a2a6115d3565b73ffffffffffffffffffffffffffffffffffffffff16611a48610d38565b73ffffffffffffffffffffffffffffffffffffffff1614611a9e576040517f08c379a0000000000000000000000000000000000000000000000000000000008152600401611a9590613566565b60405180910390fd5b565b60006002600083815260200190815260200160002060009054906101000a900473ffffffffffffffffffffffffffffffffffffffff169050919050565b6000600760009054906101000a900473ffffffffffffffffffffffffffffffffffffffff16905081600760006101000a81548173ffffffffffffffffffffffffffffffffffffffff021916908373ffffffffffffffffffffffffffffffffffffffff1602179055508173ffffffffffffffffffffffffffffffffffffffff168173ffffffffffffffffffffffffffffffffffffffff167f8be0079c531659141344cd1fd0a4f28419497f9722a3daafe3b4186f6b6457e060405160405180910390a35050565b8173ffffffffffffffffffffffffffffffffffffffff168373ffffffffffffffffffffffffffffffffffffffff1603611c11576040517f08c379a0000000000000000000000000000000000000000000000000000000008152600401611c08906135d2565b60405180910390fd5b80600560008573ffffffffffffffffffffffffffffffffffffffff1673ffffffffffffffffffffffffffffffffffffffff16815260200190815260200160002060008473ffffffffffffffffffffffffffffffffffffffff1673ffffffffffffffffffffffffffffffffffffffff16815260200190815260200160002060006101000a81548160ff0219169083151502179055508173ffffffffffffffffffffffffffffffffffffffff168373ffffffffffffffffffffffffffffffffffffffff167f17307eab39ab6107e8899845ad3d59bd9653f200f220920489ca2b5937696c3183604051611d0291906126ba565b60405180910390a3505050565b60008060009050334282604051602001611d2b9392919061365b565b6040516020818303038152906040528051906020012060001c90508091505090565b611d67828260405180602001604052806000815250611fa1565b5050565b611d7482611f54565b611db3576040517f08c379a0000000000000000000000000000000000000000000000000000000008152600401611daa9061370a565b60405180910390fd5b80600660008481526020019081526020016000209081611dd391906138cc565b507ff8e1a15aba9398e019f0b49df1a4fde98ee17ae345cb5f6b5e2c27f5033e8ce782604051611e039190612a54565b60405180910390a15050565b611e1a848484611729565b611e2684848484611ffc565b611e65576040517f08c379a0000000000000000000000000000000000000000000000000000000008152600401611e5c90613a10565b60405180910390fd5b50505050565b606060405180602001604052806000815250905090565b6060611e8d82611588565b6000611e97611e6b565b90506000815111611eb75760405180602001604052806000815250611ee2565b80611ec184612183565b604051602001611ed29291906132f8565b6040516020818303038152906040525b915050919050565b60007f01ffc9a7000000000000000000000000000000000000000000000000000000007bffffffffffffffffffffffffffffffffffffffffffffffffffffffff1916827bffffffffffffffffffffffffffffffffffffffffffffffffffffffff1916149050919050565b60008073ffffffffffffffffffffffffffffffffffffffff16611f7683611aa0565b73ffffffffffffffffffffffffffffffffffffffff1614159050919050565b50505050565b50505050565b611fab8383612251565b611fb86000848484611ffc565b611ff7576040517f08c379a0000000000000000000000000000000000000000000000000000000008152600401611fee90613a10565b60405180910390fd5b505050565b600061201d8473ffffffffffffffffffffffffffffffffffffffff1661246e565b15612176578373ffffffffffffffffffffffffffffffffffffffff1663150b7a026120466115d3565b8786866040518563ffffffff1660e01b81526004016120689493929190613a85565b6020604051808303816000875af19250505080156120a457506040513d601f19601f820116820180604052508101906120a19190613ae6565b60015b612126573d80600081146120d4576040519150601f19603f3d011682016040523d82523d6000602084013e6120d9565b606091505b50600081510361211e576040517f08c379a000000000000000000000000000000000000000000000000000000000815260040161211590613a10565b60405180910390fd5b805181602001fd5b63150b7a0260e01b7bffffffffffffffffffffffffffffffffffffffffffffffffffffffff1916817bffffffffffffffffffffffffffffffffffffffffffffffffffffffff19161491505061217b565b600190505b949350505050565b60606000600161219284612491565b01905060008167ffffffffffffffff8111156121b1576121b0612b4e565b5b6040519080825280601f01601f1916602001820160405280156121e35781602001600182028036833780820191505090505b509050600082602001820190505b600115612246578080600190039150507f3031323334353637383961626364656600000000000000000000000000000000600a86061a8153600a858161223a57612239613225565b5b049450600085036121f1575b819350505050919050565b600073ffffffffffffffffffffffffffffffffffffffff168273ffffffffffffffffffffffffffffffffffffffff16036122c0576040517f08c379a00000000000000000000000000000000000000000000000000000000081526004016122b790613b5f565b60405180910390fd5b6122c981611f54565b15612309576040517f08c379a000000000000000000000000000000000000000000000000000000000815260040161230090613bcb565b60405180910390fd5b612317600083836001611f95565b61232081611f54565b15612360576040517f08c379a000000000000000000000000000000000000000000000000000000000815260040161235790613bcb565b60405180910390fd5b6001600360008473ffffffffffffffffffffffffffffffffffffffff1673ffffffffffffffffffffffffffffffffffffffff16815260200190815260200160002060008282540192505081905550816002600083815260200190815260200160002060006101000a81548173ffffffffffffffffffffffffffffffffffffffff021916908373ffffffffffffffffffffffffffffffffffffffff160217905550808273ffffffffffffffffffffffffffffffffffffffff16600073ffffffffffffffffffffffffffffffffffffffff167fddf252ad1be2c89b69c2b068fc378daa952ba7f163c4a11628f55a4df523b3ef60405160405180910390a461246a600083836001611f9b565b5050565b6000808273ffffffffffffffffffffffffffffffffffffffff163b119050919050565b600080600090507a184f03e93ff9f4daa797ed6e38ed64bf6a1f01000000000000000083106124ef577a184f03e93ff9f4daa797ed6e38ed64bf6a1f01000000000000000083816124e5576124e4613225565b5b0492506040810190505b6d04ee2d6d415b85acef8100000000831061252c576d04ee2d6d415b85acef8100000000838161252257612521613225565b5b0492506020810190505b662386f26fc10000831061255b57662386f26fc10000838161255157612550613225565b5b0492506010810190505b6305f5e1008310612584576305f5e100838161257a57612579613225565b5b0492506008810190505b61271083106125a957612710838161259f5761259e613225565b5b0492506004810190505b606483106125cc57606483816125c2576125c1613225565b5b0492506002810190505b600a83106125db576001810190505b80915050919050565b6040518060600160405280600390602082028036833780820191505090505090565b6000604051905090565b600080fd5b600080fd5b60007fffffffff0000000000000000000000000000000000000000000000000000000082169050919050565b61264f8161261a565b811461265a57600080fd5b50565b60008135905061266c81612646565b92915050565b60006020828403121561268857612687612610565b5b60006126968482850161265d565b91505092915050565b60008115159050919050565b6126b48161269f565b82525050565b60006020820190506126cf60008301846126ab565b92915050565b600081519050919050565b600082825260208201905092915050565b60005b8381101561270f5780820151818401526020810190506126f4565b60008484015250505050565b6000601f19601f8301169050919050565b6000612737826126d5565b61274181856126e0565b93506127518185602086016126f1565b61275a8161271b565b840191505092915050565b6000602082019050818103600083015261277f818461272c565b905092915050565b6000819050919050565b61279a81612787565b81146127a557600080fd5b50565b6000813590506127b781612791565b92915050565b6000602082840312156127d3576127d2612610565b5b60006127e1848285016127a8565b91505092915050565b600073ffffffffffffffffffffffffffffffffffffffff82169050919050565b6000612815826127ea565b9050919050565b6128258161280a565b82525050565b6000602082019050612840600083018461281c565b92915050565b61284f8161280a565b811461285a57600080fd5b50565b60008135905061286c81612846565b92915050565b6000806040838503121561288957612888612610565b5b60006128978582860161285d565b92505060206128a8858286016127a8565b9150509250929050565b6000806000606084860312156128cb576128ca612610565b5b60006128d98682870161285d565b93505060206128ea8682870161285d565b92505060406128fb868287016127a8565b9150509250925092565b6000819050919050565b600061292a612925612920846127ea565b612905565b6127ea565b9050919050565b600061293c8261290f565b9050919050565b600061294e82612931565b9050919050565b61295e81612943565b82525050565b60006020820190506129796000830184612955565b92915050565b600060039050919050565b600081905092915050565b6000819050919050565b6129a881612787565b82525050565b60006129ba838361299f565b60208301905092915050565b6000602082019050919050565b6129dc8161297f565b6129e6818461298a565b92506129f182612995565b8060005b83811015612a22578151612a0987826129ae565b9650612a14836129c6565b9250506001810190506129f5565b505050505050565b6000606082019050612a3f60008301846129d3565b92915050565b612a4e81612787565b82525050565b6000602082019050612a696000830184612a45565b92915050565b600060208284031215612a8557612a84612610565b5b6000612a938482850161285d565b91505092915050565b6000612aa782612931565b9050919050565b612ab781612a9c565b82525050565b6000602082019050612ad26000830184612aae565b92915050565b612ae18161269f565b8114612aec57600080fd5b50565b600081359050612afe81612ad8565b92915050565b60008060408385031215612b1b57612b1a612610565b5b6000612b298582860161285d565b9250506020612b3a85828601612aef565b9150509250929050565b600080fd5b600080fd5b7f4e487b7100000000000000000000000000000000000000000000000000000000600052604160045260246000fd5b612b868261271b565b810181811067ffffffffffffffff82111715612ba557612ba4612b4e565b5b80604052505050565b6000612bb8612606565b9050612bc48282612b7d565b919050565b600067ffffffffffffffff821115612be457612be3612b4e565b5b612bed8261271b565b9050602081019050919050565b82818337600083830152505050565b6000612c1c612c1784612bc9565b612bae565b905082815260208101848484011115612c3857612c37612b49565b5b612c43848285612bfa565b509392505050565b600082601f830112612c6057612c5f612b44565b5b8135612c70848260208601612c09565b91505092915050565b60008060008060808587031215612c9357612c92612610565b5b6000612ca18782880161285d565b9450506020612cb28782880161285d565b9350506040612cc3878288016127a8565b925050606085013567ffffffffffffffff811115612ce457612ce3612615565b5b612cf087828801612c4b565b91505092959194509250565b7f4e487b7100000000000000000000000000000000000000000000000000000000600052602160045260246000fd5b60038110612d3c57612d3b612cfc565b5b50565b6000819050612d4d82612d2b565b919050565b6000612d5d82612d3f565b9050919050565b612d6d81612d52565b82525050565b6000602082019050612d886000830184612d64565b92915050565b60008060408385031215612da557612da4612610565b5b6000612db38582860161285d565b9250506020612dc48582860161285d565b9150509250929050565b7f4e487b7100000000000000000000000000000000000000000000000000000000600052602260045260246000fd5b60006002820490506001821680612e1557607f821691505b602082108103612e2857612e27612dce565b5b50919050565b7f4552433732313a20617070726f76616c20746f2063757272656e74206f776e6560008201527f7200000000000000000000000000000000000000000000000000000000000000602082015250565b6000612e8a6021836126e0565b9150612e9582612e2e565b604082019050919050565b60006020820190508181036000830152612eb981612e7d565b9050919050565b7f4552433732313a20617070726f76652063616c6c6572206973206e6f7420746f60008201527f6b656e206f776e6572206f7220617070726f76656420666f7220616c6c000000602082015250565b6000612f1c603d836126e0565b9150612f2782612ec0565b604082019050919050565b60006020820190508181036000830152612f4b81612f0f565b9050919050565b7f4e487b7100000000000000000000000000000000000000000000000000000000600052603260045260246000fd5b7f4552433732313a2063616c6c6572206973206e6f7420746f6b656e206f776e6560008201527f72206f7220617070726f76656400000000000000000000000000000000000000602082015250565b6000612fdd602d836126e0565b9150612fe882612f81565b604082019050919050565b6000602082019050818103600083015261300c81612fd0565b9050919050565b600081905092915050565b50565b600061302e600083613013565b91506130398261301e565b600082019050919050565b600061304f82613021565b9150819050919050565b7f4552433732313a20696e76616c696420746f6b656e2049440000000000000000600082015250565b600061308f6018836126e0565b915061309a82613059565b602082019050919050565b600060208201905081810360008301526130be81613082565b9050919050565b7f4552433732313a2061646472657373207a65726f206973206e6f74206120766160008201527f6c6964206f776e65720000000000000000000000000000000000000000000000602082015250565b60006131216029836126e0565b915061312c826130c5565b604082019050919050565b6000602082019050818103600083015261315081613114565b9050919050565b600060408201905061316c600083018561281c565b613179602083018461281c565b9392505050565b60008151905061318f81612791565b92915050565b6000602082840312156131ab576131aa612610565b5b60006131b984828501613180565b91505092915050565b7f4e487b7100000000000000000000000000000000000000000000000000000000600052601160045260246000fd5b60006131fc82612787565b915061320783612787565b925082820190508082111561321f5761321e6131c2565b5b92915050565b7f4e487b7100000000000000000000000000000000000000000000000000000000600052601260045260246000fd5b600061325f82612787565b915061326a83612787565b92508261327a57613279613225565b5b828206905092915050565b600060608201905061329a600083018661281c565b6132a7602083018561281c565b6132b46040830184612a45565b949350505050565b600081905092915050565b60006132d2826126d5565b6132dc81856132bc565b93506132ec8185602086016126f1565b80840191505092915050565b600061330482856132c7565b915061331082846132c7565b91508190509392505050565b600061332782612787565b91507fffffffffffffffffffffffffffffffffffffffffffffffffffffffffffffffff8203613359576133586131c2565b5b600182019050919050565b7f4f776e61626c653a206e6577206f776e657220697320746865207a65726f206160008201527f6464726573730000000000000000000000000000000000000000000000000000602082015250565b60006133c06026836126e0565b91506133cb82613364565b604082019050919050565b600060208201905081810360008301526133ef816133b3565b9050919050565b7f4552433732313a207472616e736665722066726f6d20696e636f72726563742060008201527f6f776e6572000000000000000000000000000000000000000000000000000000602082015250565b60006134526025836126e0565b915061345d826133f6565b604082019050919050565b6000602082019050818103600083015261348181613445565b9050919050565b7f4552433732313a207472616e7366657220746f20746865207a65726f2061646460008201527f7265737300000000000000000000000000000000000000000000000000000000602082015250565b60006134e46024836126e0565b91506134ef82613488565b604082019050919050565b60006020820190508181036000830152613513816134d7565b9050919050565b7f4f776e61626c653a2063616c6c6572206973206e6f7420746865206f776e6572600082015250565b60006135506020836126e0565b915061355b8261351a565b602082019050919050565b6000602082019050818103600083015261357f81613543565b9050919050565b7f4552433732313a20617070726f766520746f2063616c6c657200000000000000600082015250565b60006135bc6019836126e0565b91506135c782613586565b602082019050919050565b600060208201905081810360008301526135eb816135af565b9050919050565b60008160601b9050919050565b600061360a826135f2565b9050919050565b600061361c826135ff565b9050919050565b61363461362f8261280a565b613611565b82525050565b6000819050919050565b61365561365082612787565b61363a565b82525050565b60006136678286613623565b6014820191506136778285613644565b6020820191506136878284613644565b602082019150819050949350505050565b7f45524337323155524953746f726167653a2055524920736574206f66206e6f6e60008201527f6578697374656e7420746f6b656e000000000000000000000000000000000000602082015250565b60006136f4602e836126e0565b91506136ff82613698565b604082019050919050565b60006020820190508181036000830152613723816136e7565b9050919050565b60008190508160005260206000209050919050565b60006020601f8301049050919050565b600082821b905092915050565b60006008830261378c7fffffffffffffffffffffffffffffffffffffffffffffffffffffffffffffffff8261374f565b613796868361374f565b95508019841693508086168417925050509392505050565b60006137c96137c46137bf84612787565b612905565b612787565b9050919050565b6000819050919050565b6137e3836137ae565b6137f76137ef826137d0565b84845461375c565b825550505050565b600090565b61380c6137ff565b6138178184846137da565b505050565b5b8181101561383b57613830600082613804565b60018101905061381d565b5050565b601f821115613880576138518161372a565b61385a8461373f565b81016020851015613869578190505b61387d6138758561373f565b83018261381c565b50505b505050565b600082821c905092915050565b60006138a360001984600802613885565b1980831691505092915050565b60006138bc8383613892565b9150826002028217905092915050565b6138d5826126d5565b67ffffffffffffffff8111156138ee576138ed612b4e565b5b6138f88254612dfd565b61390382828561383f565b600060209050601f8311600181146139365760008415613924578287015190505b61392e85826138b0565b865550613996565b601f1984166139448661372a565b60005b8281101561396c57848901518255600182019150602085019450602081019050613947565b868310156139895784890151613985601f891682613892565b8355505b6001600288020188555050505b505050505050565b7f4552433732313a207472616e7366657220746f206e6f6e20455243373231526560008201527f63656976657220696d706c656d656e7465720000000000000000000000000000602082015250565b60006139fa6032836126e0565b9150613a058261399e565b604082019050919050565b60006020820190508181036000830152613a29816139ed565b9050919050565b600081519050919050565b600082825260208201905092915050565b6000613a5782613a30565b613a618185613a3b565b9350613a718185602086016126f1565b613a7a8161271b565b840191505092915050565b6000608082019050613a9a600083018761281c565b613aa7602083018661281c565b613ab46040830185612a45565b8181036060830152613ac68184613a4c565b905095945050505050565b600081519050613ae081612646565b92915050565b600060208284031215613afc57613afb612610565b5b6000613b0a84828501613ad1565b91505092915050565b7f4552433732313a206d696e7420746f20746865207a65726f2061646472657373600082015250565b6000613b496020836126e0565b9150613b5482613b13565b602082019050919050565b60006020820190508181036000830152613b7881613b3c565b9050919050565b7f4552433732313a20746f6b656e20616c7265616479206d696e74656400000000600082015250565b6000613bb5601c836126e0565b9150613bc082613b7f565b602082019050919050565b60006020820190508181036000830152613be481613ba8565b905091905056fea2646970667358221220644b99f37d28e2e6e7defca5ff795bcc49ef1a83b5e3f0d12dbfebc07ed7b1e164736f6c63430008120033",
  "devdoc": {
    "events": {
      "Approval(address,address,uint256)": {
        "details": "Emitted when `owner` enables `approved` to manage the `tokenId` token."
      },
      "ApprovalForAll(address,address,bool)": {
        "details": "Emitted when `owner` enables or disables (`approved`) `operator` to manage all of its assets."
      },
      "BatchMetadataUpdate(uint256,uint256)": {
        "details": "This event emits when the metadata of a range of tokens is changed. So that the third-party platforms such as NFT market could timely update the images and related attributes of the NFTs."
      },
      "MetadataUpdate(uint256)": {
        "details": "This event emits when the metadata of a token is changed. So that the third-party platforms such as NFT market could timely update the images and related attributes of the NFT."
      },
      "Transfer(address,address,uint256)": {
        "details": "Emitted when `tokenId` token is transferred from `from` to `to`."
      }
    },
    "kind": "dev",
    "methods": {
      "approve(address,uint256)": {
        "details": "See {IERC721-approve}."
      },
      "balanceOf(address)": {
        "details": "See {IERC721-balanceOf}."
      },
      "getApproved(uint256)": {
        "details": "See {IERC721-getApproved}."
      },
      "isApprovedForAll(address,address)": {
        "details": "See {IERC721-isApprovedForAll}."
      },
      "name()": {
        "details": "See {IERC721Metadata-name}."
      },
      "owner()": {
        "details": "Returns the address of the current owner."
      },
      "ownerOf(uint256)": {
        "details": "See {IERC721-ownerOf}."
      },
      "renounceOwnership()": {
        "details": "Leaves the contract without owner. It will not be possible to call `onlyOwner` functions. Can only be called by the current owner. NOTE: Renouncing ownership will leave the contract without an owner, thereby disabling any functionality that is only available to the owner."
      },
      "safeTransferFrom(address,address,uint256)": {
        "details": "See {IERC721-safeTransferFrom}."
      },
      "safeTransferFrom(address,address,uint256,bytes)": {
        "details": "See {IERC721-safeTransferFrom}."
      },
      "setApprovalForAll(address,bool)": {
        "details": "See {IERC721-setApprovalForAll}."
      },
      "supportsInterface(bytes4)": {
        "details": "See {IERC165-supportsInterface}"
      },
      "symbol()": {
        "details": "See {IERC721Metadata-symbol}."
      },
      "tokenURI(uint256)": {
        "details": "See {IERC721Metadata-tokenURI}."
      },
      "transferFrom(address,address,uint256)": {
        "details": "See {IERC721-transferFrom}."
      },
      "transferOwnership(address)": {
        "details": "Transfers ownership of the contract to a new account (`newOwner`). Can only be called by the current owner."
      }
    },
    "version": 1
  },
  "userdoc": {
    "kind": "user",
    "methods": {},
    "version": 1
  },
  "storageLayout": {
    "storage": [
      {
        "astId": 166,
        "contract": "contracts/MadWizard.sol:MadWizard",
        "label": "_name",
        "offset": 0,
        "slot": "0",
        "type": "t_string_storage"
      },
      {
        "astId": 168,
        "contract": "contracts/MadWizard.sol:MadWizard",
        "label": "_symbol",
        "offset": 0,
        "slot": "1",
        "type": "t_string_storage"
      },
      {
        "astId": 172,
        "contract": "contracts/MadWizard.sol:MadWizard",
        "label": "_owners",
        "offset": 0,
        "slot": "2",
        "type": "t_mapping(t_uint256,t_address)"
      },
      {
        "astId": 176,
        "contract": "contracts/MadWizard.sol:MadWizard",
        "label": "_balances",
        "offset": 0,
        "slot": "3",
        "type": "t_mapping(t_address,t_uint256)"
      },
      {
        "astId": 180,
        "contract": "contracts/MadWizard.sol:MadWizard",
        "label": "_tokenApprovals",
        "offset": 0,
        "slot": "4",
        "type": "t_mapping(t_uint256,t_address)"
      },
      {
        "astId": 186,
        "contract": "contracts/MadWizard.sol:MadWizard",
        "label": "_operatorApprovals",
        "offset": 0,
        "slot": "5",
        "type": "t_mapping(t_address,t_mapping(t_address,t_bool))"
      },
      {
        "astId": 1217,
        "contract": "contracts/MadWizard.sol:MadWizard",
        "label": "_tokenURIs",
        "offset": 0,
        "slot": "6",
        "type": "t_mapping(t_uint256,t_string_storage)"
      },
      {
        "astId": 7,
        "contract": "contracts/MadWizard.sol:MadWizard",
        "label": "_owner",
        "offset": 0,
        "slot": "7",
        "type": "t_address"
      },
      {
        "astId": 3201,
        "contract": "contracts/MadWizard.sol:MadWizard",
        "label": "s_tokenCounter",
        "offset": 0,
        "slot": "8",
        "type": "t_uint256"
      },
      {
        "astId": 3209,
        "contract": "contracts/MadWizard.sol:MadWizard",
        "label": "s_genTokenUris",
        "offset": 0,
        "slot": "9",
        "type": "t_array(t_string_storage)dyn_storage"
      },
      {
        "astId": 3211,
        "contract": "contracts/MadWizard.sol:MadWizard",
        "label": "s_initialized",
        "offset": 0,
        "slot": "10",
        "type": "t_bool"
      }
    ],
    "types": {
      "t_address": {
        "encoding": "inplace",
        "label": "address",
        "numberOfBytes": "20"
      },
      "t_array(t_string_storage)dyn_storage": {
        "base": "t_string_storage",
        "encoding": "dynamic_array",
        "label": "string[]",
        "numberOfBytes": "32"
      },
      "t_bool": {
        "encoding": "inplace",
        "label": "bool",
        "numberOfBytes": "1"
      },
      "t_mapping(t_address,t_bool)": {
        "encoding": "mapping",
        "key": "t_address",
        "label": "mapping(address => bool)",
        "numberOfBytes": "32",
        "value": "t_bool"
      },
      "t_mapping(t_address,t_mapping(t_address,t_bool))": {
        "encoding": "mapping",
        "key": "t_address",
        "label": "mapping(address => mapping(address => bool))",
        "numberOfBytes": "32",
        "value": "t_mapping(t_address,t_bool)"
      },
      "t_mapping(t_address,t_uint256)": {
        "encoding": "mapping",
        "key": "t_address",
        "label": "mapping(address => uint256)",
        "numberOfBytes": "32",
        "value": "t_uint256"
      },
      "t_mapping(t_uint256,t_address)": {
        "encoding": "mapping",
        "key": "t_uint256",
        "label": "mapping(uint256 => address)",
        "numberOfBytes": "32",
        "value": "t_address"
      },
      "t_mapping(t_uint256,t_string_storage)": {
        "encoding": "mapping",
        "key": "t_uint256",
        "label": "mapping(uint256 => string)",
        "numberOfBytes": "32",
        "value": "t_string_storage"
      },
      "t_string_storage": {
        "encoding": "bytes",
        "label": "string",
        "numberOfBytes": "32"
      },
      "t_uint256": {
        "encoding": "inplace",
        "label": "uint256",
        "numberOfBytes": "32"
      }
    }
  }
}