{
  "address": "0xc6e7DF5E7b4f2A278906862b61205850344D4e7d",
  "abi": [
    {
      "inputs": [
        {
          "internalType": "string[3]",
          "name": "genTokenUris",
          "type": "string[3]"
        },
        {
          "internalType": "uint256",
          "name": "maxSupply",
          "type": "uint256"
        }
      ],
      "stateMutability": "nonpayable",
      "type": "constructor"
    },
    {
      "inputs": [],
      "name": "MadWizard__AlreadyInitialized",
      "type": "error"
    },
    {
      "inputs": [],
      "name": "MadWizard__MaxSupplyReached",
      "type": "error"
    },
    {
      "inputs": [],
      "name": "MadWizard__RangeOutOfBounds",
      "type": "error"
    },
    {
      "inputs": [],
      "name": "MadWizard__TransferFailed",
      "type": "error"
    },
    {
      "anonymous": false,
      "inputs": [
        {
          "indexed": true,
          "internalType": "address",
          "name": "owner",
          "type": "address"
        },
        {
          "indexed": true,
          "internalType": "address",
          "name": "approved",
          "type": "address"
        },
        {
          "indexed": true,
          "internalType": "uint256",
          "name": "tokenId",
          "type": "uint256"
        }
      ],
      "name": "Approval",
      "type": "event"
    },
    {
      "anonymous": false,
      "inputs": [
        {
          "indexed": true,
          "internalType": "address",
          "name": "owner",
          "type": "address"
        },
        {
          "indexed": true,
          "internalType": "address",
          "name": "operator",
          "type": "address"
        },
        {
          "indexed": false,
          "internalType": "bool",
          "name": "approved",
          "type": "bool"
        }
      ],
      "name": "ApprovalForAll",
      "type": "event"
    },
    {
      "anonymous": false,
      "inputs": [
        {
          "indexed": false,
          "internalType": "uint256",
          "name": "_fromTokenId",
          "type": "uint256"
        },
        {
          "indexed": false,
          "internalType": "uint256",
          "name": "_toTokenId",
          "type": "uint256"
        }
      ],
      "name": "BatchMetadataUpdate",
      "type": "event"
    },
    {
      "anonymous": false,
      "inputs": [
        {
          "indexed": false,
          "internalType": "uint256",
          "name": "_tokenId",
          "type": "uint256"
        }
      ],
      "name": "MetadataUpdate",
      "type": "event"
    },
    {
      "anonymous": false,
      "inputs": [
        {
          "indexed": false,
          "internalType": "enum MadWizard.Destiny",
          "name": "Destiny",
          "type": "uint8"
        },
        {
          "indexed": false,
          "internalType": "address",
          "name": "minter",
          "type": "address"
        }
      ],
      "name": "NftMinted",
      "type": "event"
    },
    {
      "anonymous": false,
      "inputs": [
        {
          "indexed": true,
          "internalType": "address",
          "name": "previousOwner",
          "type": "address"
        },
        {
          "indexed": true,
          "internalType": "address",
          "name": "newOwner",
          "type": "address"
        }
      ],
      "name": "OwnershipTransferred",
      "type": "event"
    },
    {
      "anonymous": false,
      "inputs": [
        {
          "indexed": true,
          "internalType": "address",
          "name": "from",
          "type": "address"
        },
        {
          "indexed": true,
          "internalType": "address",
          "name": "to",
          "type": "address"
        },
        {
          "indexed": true,
          "internalType": "uint256",
          "name": "tokenId",
          "type": "uint256"
        }
      ],
      "name": "Transfer",
      "type": "event"
    },
    {
      "inputs": [
        {
          "internalType": "address",
          "name": "to",
          "type": "address"
        },
        {
          "internalType": "uint256",
          "name": "tokenId",
          "type": "uint256"
        }
      ],
      "name": "approve",
      "outputs": [],
      "stateMutability": "nonpayable",
      "type": "function"
    },
    {
      "inputs": [
        {
          "internalType": "address",
          "name": "owner",
          "type": "address"
        }
      ],
      "name": "balanceOf",
      "outputs": [
        {
          "internalType": "uint256",
          "name": "",
          "type": "uint256"
        }
      ],
      "stateMutability": "view",
      "type": "function"
    },
    {
      "inputs": [
        {
          "internalType": "uint256",
          "name": "tokenId",
          "type": "uint256"
        }
      ],
      "name": "getApproved",
      "outputs": [
        {
          "internalType": "address",
          "name": "",
          "type": "address"
        }
      ],
      "stateMutability": "view",
      "type": "function"
    },
    {
      "inputs": [],
      "name": "getChanceArray",
      "outputs": [
        {
          "internalType": "uint256[3]",
          "name": "",
          "type": "uint256[3]"
        }
      ],
      "stateMutability": "pure",
      "type": "function"
    },
    {
      "inputs": [
        {
          "internalType": "uint256",
          "name": "moddedRng",
          "type": "uint256"
        }
      ],
      "name": "getDestinyFromModdedRng",
      "outputs": [
        {
          "internalType": "enum MadWizard.Destiny",
          "name": "",
          "type": "uint8"
        }
      ],
      "stateMutability": "pure",
      "type": "function"
    },
    {
      "inputs": [],
      "name": "getInitialized",
      "outputs": [
        {
          "internalType": "bool",
          "name": "",
          "type": "bool"
        }
      ],
      "stateMutability": "view",
      "type": "function"
    },
    {
      "inputs": [],
      "name": "getTokenCounter",
      "outputs": [
        {
          "internalType": "uint256",
          "name": "",
          "type": "uint256"
        }
      ],
      "stateMutability": "view",
      "type": "function"
    },
    {
      "inputs": [
        {
          "internalType": "uint256",
          "name": "index",
          "type": "uint256"
        }
      ],
      "name": "getgenTokenUris",
      "outputs": [
        {
          "internalType": "string",
          "name": "",
          "type": "string"
        }
      ],
      "stateMutability": "view",
      "type": "function"
    },
    {
      "inputs": [
        {
          "internalType": "address",
          "name": "owner",
          "type": "address"
        },
        {
          "internalType": "address",
          "name": "operator",
          "type": "address"
        }
      ],
      "name": "isApprovedForAll",
      "outputs": [
        {
          "internalType": "bool",
          "name": "",
          "type": "bool"
        }
      ],
      "stateMutability": "view",
      "type": "function"
    },
    {
      "inputs": [],
      "name": "name",
      "outputs": [
        {
          "internalType": "string",
          "name": "",
          "type": "string"
        }
      ],
      "stateMutability": "view",
      "type": "function"
    },
    {
      "inputs": [],
      "name": "owner",
      "outputs": [
        {
          "internalType": "address",
          "name": "",
          "type": "address"
        }
      ],
      "stateMutability": "view",
      "type": "function"
    },
    {
      "inputs": [
        {
          "internalType": "uint256",
          "name": "tokenId",
          "type": "uint256"
        }
      ],
      "name": "ownerOf",
      "outputs": [
        {
          "internalType": "address",
          "name": "",
          "type": "address"
        }
      ],
      "stateMutability": "view",
      "type": "function"
    },
    {
      "inputs": [],
      "name": "renounceOwnership",
      "outputs": [],
      "stateMutability": "nonpayable",
      "type": "function"
    },
    {
      "inputs": [],
      "name": "requestNft",
      "outputs": [],
      "stateMutability": "payable",
      "type": "function"
    },
    {
      "inputs": [
        {
          "internalType": "address",
          "name": "from",
          "type": "address"
        },
        {
          "internalType": "address",
          "name": "to",
          "type": "address"
        },
        {
          "internalType": "uint256",
          "name": "tokenId",
          "type": "uint256"
        }
      ],
      "name": "safeTransferFrom",
      "outputs": [],
      "stateMutability": "nonpayable",
      "type": "function"
    },
    {
      "inputs": [
        {
          "internalType": "address",
          "name": "from",
          "type": "address"
        },
        {
          "internalType": "address",
          "name": "to",
          "type": "address"
        },
        {
          "internalType": "uint256",
          "name": "tokenId",
          "type": "uint256"
        },
        {
          "internalType": "bytes",
          "name": "data",
          "type": "bytes"
        }
      ],
      "name": "safeTransferFrom",
      "outputs": [],
      "stateMutability": "nonpayable",
      "type": "function"
    },
    {
      "inputs": [
        {
          "internalType": "address",
          "name": "operator",
          "type": "address"
        },
        {
          "internalType": "bool",
          "name": "approved",
          "type": "bool"
        }
      ],
      "name": "setApprovalForAll",
      "outputs": [],
      "stateMutability": "nonpayable",
      "type": "function"
    },
    {
      "inputs": [
        {
          "internalType": "bytes4",
          "name": "interfaceId",
          "type": "bytes4"
        }
      ],
      "name": "supportsInterface",
      "outputs": [
        {
          "internalType": "bool",
          "name": "",
          "type": "bool"
        }
      ],
      "stateMutability": "view",
      "type": "function"
    },
    {
      "inputs": [],
      "name": "symbol",
      "outputs": [
        {
          "internalType": "string",
          "name": "",
          "type": "string"
        }
      ],
      "stateMutability": "view",
      "type": "function"
    },
    {
      "inputs": [
        {
          "internalType": "uint256",
          "name": "tokenId",
          "type": "uint256"
        }
      ],
      "name": "tokenURI",
      "outputs": [
        {
          "internalType": "string",
          "name": "",
          "type": "string"
        }
      ],
      "stateMutability": "view",
      "type": "function"
    },
    {
      "inputs": [
        {
          "internalType": "address",
          "name": "from",
          "type": "address"
        },
        {
          "internalType": "address",
          "name": "to",
          "type": "address"
        },
        {
          "internalType": "uint256",
          "name": "tokenId",
          "type": "uint256"
        }
      ],
      "name": "transferFrom",
      "outputs": [],
      "stateMutability": "nonpayable",
      "type": "function"
    },
    {
      "inputs": [
        {
          "internalType": "address",
          "name": "newOwner",
          "type": "address"
        }
      ],
      "name": "transferOwnership",
      "outputs": [],
      "stateMutability": "nonpayable",
      "type": "function"
    },
    {
      "inputs": [],
      "name": "withdraw",
      "outputs": [],
      "stateMutability": "nonpayable",
      "type": "function"
    }
  ],
  "transactionHash": "0xebc321e5e2a9615ebb09c020f5a2450991a6c72388fa8d444fca27b5ccc2f0d8",
  "args": [
    [
      "ipfs://QmTMX9unFh63hB5roi3pkbqhhh4WeGYPVbtAp26KzGovry",
      "ipfs://QmcX2Ecd3JeDqFbwEszt2VFdGaHRWGwLWurQMpvXjA8YWp",
      "ipfs://QmdQynkwAe81AKsWR6cFwYaFAxn8aGfvxz459LtbBNMYoe"
    ],
    999
  ],
  "numDeployments": 4,
  "solcInputHash": "2f3828d7ea1c01dd0ffb6a88c304f0ef",
  "bytecode": "0x60a06040523480156200001157600080fd5b5060405162004108380380620041088339818101604052810190620000379190620005ff565b6040518060400160405280600b81526020017f4d616457697a7a617264730000000000000000000000000000000000000000008152506040518060400160405280600481526020017f4d57495a000000000000000000000000000000000000000000000000000000008152508160009081620000b49190620008a6565b508060019081620000c69190620008a6565b505050620000e9620000dd6200011260201b60201c565b6200011a60201b60201c565b620000fa82620001e060201b60201c565b6000600881905550806080818152505050506200098d565b600033905090565b6000600760009054906101000a900473ffffffffffffffffffffffffffffffffffffffff16905081600760006101000a81548173ffffffffffffffffffffffffffffffffffffffff021916908373ffffffffffffffffffffffffffffffffffffffff1602179055508173ffffffffffffffffffffffffffffffffffffffff168173ffffffffffffffffffffffffffffffffffffffff167f8be0079c531659141344cd1fd0a4f28419497f9722a3daafe3b4186f6b6457e060405160405180910390a35050565b600a60009054906101000a900460ff161562000228576040517f0f78dda000000000000000000000000000000000000000000000000000000000815260040160405180910390fd5b8060099060036200023b9291906200025a565b506001600a60006101000a81548160ff02191690831515021790555050565b828054828255906000526020600020908101928215620002a7579160200282015b82811115620002a6578251829081620002959190620008a6565b50916020019190600101906200027b565b5b509050620002b69190620002ba565b5090565b5b80821115620002de5760008181620002d49190620002e2565b50600101620002bb565b5090565b508054620002f0906200069f565b6000825580601f1062000304575062000325565b601f01602090049060005260206000209081019062000324919062000328565b5b50565b5b808211156200034357600081600090555060010162000329565b5090565b6000604051905090565b600080fd5b600080fd5b600080fd5b6000601f19601f8301169050919050565b7f4e487b7100000000000000000000000000000000000000000000000000000000600052604160045260246000fd5b620003ab8262000360565b810181811067ffffffffffffffff82111715620003cd57620003cc62000371565b5b80604052505050565b6000620003e262000347565b9050620003f08282620003a0565b919050565b600067ffffffffffffffff82111562000413576200041262000371565b5b602082029050919050565b600080fd5b600080fd5b600067ffffffffffffffff82111562000446576200044562000371565b5b620004518262000360565b9050602081019050919050565b60005b838110156200047e57808201518184015260208101905062000461565b60008484015250505050565b6000620004a16200049b8462000428565b620003d6565b905082815260208101848484011115620004c057620004bf62000423565b5b620004cd8482856200045e565b509392505050565b600082601f830112620004ed57620004ec6200035b565b5b8151620004ff8482602086016200048a565b91505092915050565b60006200051f6200051984620003f5565b620003d6565b905080602084028301858111156200053c576200053b6200041e565b5b835b818110156200058a57805167ffffffffffffffff8111156200056557620005646200035b565b5b808601620005748982620004d5565b855260208501945050506020810190506200053e565b5050509392505050565b600082601f830112620005ac57620005ab6200035b565b5b6003620005bb84828562000508565b91505092915050565b6000819050919050565b620005d981620005c4565b8114620005e557600080fd5b50565b600081519050620005f981620005ce565b92915050565b6000806040838503121562000619576200061862000351565b5b600083015167ffffffffffffffff8111156200063a576200063962000356565b5b620006488582860162000594565b92505060206200065b85828601620005e8565b9150509250929050565b600081519050919050565b7f4e487b7100000000000000000000000000000000000000000000000000000000600052602260045260246000fd5b60006002820490506001821680620006b857607f821691505b602082108103620006ce57620006cd62000670565b5b50919050565b60008190508160005260206000209050919050565b60006020601f8301049050919050565b600082821b905092915050565b600060088302620007387fffffffffffffffffffffffffffffffffffffffffffffffffffffffffffffffff82620006f9565b620007448683620006f9565b95508019841693508086168417925050509392505050565b6000819050919050565b600062000787620007816200077b84620005c4565b6200075c565b620005c4565b9050919050565b6000819050919050565b620007a38362000766565b620007bb620007b2826200078e565b84845462000706565b825550505050565b600090565b620007d2620007c3565b620007df81848462000798565b505050565b5b818110156200080757620007fb600082620007c8565b600181019050620007e5565b5050565b601f82111562000856576200082081620006d4565b6200082b84620006e9565b810160208510156200083b578190505b620008536200084a85620006e9565b830182620007e4565b50505b505050565b600082821c905092915050565b60006200087b600019846008026200085b565b1980831691505092915050565b600062000896838362000868565b9150826002028217905092915050565b620008b18262000665565b67ffffffffffffffff811115620008cd57620008cc62000371565b5b620008d982546200069f565b620008e68282856200080b565b600060209050601f8311600181146200091e576000841562000909578287015190505b62000915858262000888565b86555062000985565b601f1984166200092e86620006d4565b60005b82811015620009585784890151825560018201915060208501945060208101905062000931565b8683101562000978578489015162000974601f89168262000868565b8355505b6001600288020188555050505b505050505050565b60805161375f620009a96000396000610beb015261375f6000f3fe6080604052600436106101405760003560e01c806370a08231116100b6578063b88d4fde1161006f578063b88d4fde14610429578063c87b56dd14610452578063ca8579bc1461048f578063e985e9c5146104cc578063ee89dab414610509578063f2fde38b1461053457610140565b806370a082311461034c578063715018a6146103895780638da5cb5b146103a057806395d89b41146103cb578063a22cb465146103f6578063aa1524911461041f57610140565b806323b872dd1161010857806323b872dd146102505780633ccfd60b1461027957806342842e0e146102905780635dacf5f4146102b95780636352211e146102e45780636e02007d1461032157610140565b806301ffc9a71461014557806306fdde0314610182578063081812fc146101ad578063095ea7b3146101ea57806314d8084014610213575b600080fd5b34801561015157600080fd5b5061016c600480360381019061016791906122d5565b61055d565b604051610179919061231d565b60405180910390f35b34801561018e57600080fd5b506101976105be565b6040516101a491906123c8565b60405180910390f35b3480156101b957600080fd5b506101d460048036038101906101cf9190612420565b610650565b6040516101e1919061248e565b60405180910390f35b3480156101f657600080fd5b50610211600480360381019061020c91906124d5565b610696565b005b34801561021f57600080fd5b5061023a60048036038101906102359190612420565b6107ad565b60405161024791906123c8565b60405180910390f35b34801561025c57600080fd5b5061027760048036038101906102729190612515565b61085d565b005b34801561028557600080fd5b5061028e6108bd565b005b34801561029c57600080fd5b506102b760048036038101906102b29190612515565b610971565b005b3480156102c557600080fd5b506102ce610991565b6040516102db9190612613565b60405180910390f35b3480156102f057600080fd5b5061030b60048036038101906103069190612420565b6109bc565b604051610318919061248e565b60405180910390f35b34801561032d57600080fd5b50610336610a42565b604051610343919061263d565b60405180910390f35b34801561035857600080fd5b50610373600480360381019061036e9190612658565b610a4c565b604051610380919061263d565b60405180910390f35b34801561039557600080fd5b5061039e610b03565b005b3480156103ac57600080fd5b506103b5610b17565b6040516103c2919061248e565b60405180910390f35b3480156103d757600080fd5b506103e0610b41565b6040516103ed91906123c8565b60405180910390f35b34801561040257600080fd5b5061041d600480360381019061041891906126b1565b610bd3565b005b610427610be9565b005b34801561043557600080fd5b50610450600480360381019061044b9190612826565b610d9b565b005b34801561045e57600080fd5b5061047960048036038101906104749190612420565b610dfd565b60405161048691906123c8565b60405180910390f35b34801561049b57600080fd5b506104b660048036038101906104b19190612420565b610f0f565b6040516104c39190612920565b60405180910390f35b3480156104d857600080fd5b506104f360048036038101906104ee919061293b565b610fdb565b604051610500919061231d565b60405180910390f35b34801561051557600080fd5b5061051e61106f565b60405161052b919061231d565b60405180910390f35b34801561054057600080fd5b5061055b60048036038101906105569190612658565b611086565b005b6000634906490660e01b7bffffffffffffffffffffffffffffffffffffffffffffffffffffffff1916827bffffffffffffffffffffffffffffffffffffffffffffffffffffffff191614806105b757506105b682611109565b5b9050919050565b6060600080546105cd906129aa565b80601f01602080910402602001604051908101604052809291908181526020018280546105f9906129aa565b80156106465780601f1061061b57610100808354040283529160200191610646565b820191906000526020600020905b81548152906001019060200180831161062957829003601f168201915b5050505050905090565b600061065b826111eb565b6004600083815260200190815260200160002060009054906101000a900473ffffffffffffffffffffffffffffffffffffffff169050919050565b60006106a1826109bc565b90508073ffffffffffffffffffffffffffffffffffffffff168373ffffffffffffffffffffffffffffffffffffffff1603610711576040517f08c379a000000000000000000000000000000000000000000000000000000000815260040161070890612a4d565b60405180910390fd5b8073ffffffffffffffffffffffffffffffffffffffff16610730611236565b73ffffffffffffffffffffffffffffffffffffffff16148061075f575061075e81610759611236565b610fdb565b5b61079e576040517f08c379a000000000000000000000000000000000000000000000000000000000815260040161079590612adf565b60405180910390fd5b6107a8838361123e565b505050565b6060600982815481106107c3576107c2612aff565b5b9060005260206000200180546107d8906129aa565b80601f0160208091040260200160405190810160405280929190818152602001828054610804906129aa565b80156108515780601f1061082657610100808354040283529160200191610851565b820191906000526020600020905b81548152906001019060200180831161083457829003601f168201915b50505050509050919050565b61086e610868611236565b826112f7565b6108ad576040517f08c379a00000000000000000000000000000000000000000000000000000000081526004016108a490612ba0565b60405180910390fd5b6108b883838361138c565b505050565b6108c5611685565b600047905060003373ffffffffffffffffffffffffffffffffffffffff16826040516108f090612bf1565b60006040518083038185875af1925050503d806000811461092d576040519150601f19603f3d011682016040523d82523d6000602084013e610932565b606091505b505090508061096d576040517f7e942e6a00000000000000000000000000000000000000000000000000000000815260040160405180910390fd5b5050565b61098c83838360405180602001604052806000815250610d9b565b505050565b610999612247565b6040518060600160405280603c8152602001605a81526020016064815250905090565b6000806109c883611703565b9050600073ffffffffffffffffffffffffffffffffffffffff168173ffffffffffffffffffffffffffffffffffffffff1603610a39576040517f08c379a0000000000000000000000000000000000000000000000000000000008152600401610a3090612c52565b60405180910390fd5b80915050919050565b6000600854905090565b60008073ffffffffffffffffffffffffffffffffffffffff168273ffffffffffffffffffffffffffffffffffffffff1603610abc576040517f08c379a0000000000000000000000000000000000000000000000000000000008152600401610ab390612ce4565b60405180910390fd5b600360008373ffffffffffffffffffffffffffffffffffffffff1673ffffffffffffffffffffffffffffffffffffffff168152602001908152602001600020549050919050565b610b0b611685565b610b156000611740565b565b6000600760009054906101000a900473ffffffffffffffffffffffffffffffffffffffff16905090565b606060018054610b50906129aa565b80601f0160208091040260200160405190810160405280929190818152602001828054610b7c906129aa565b8015610bc95780601f10610b9e57610100808354040283529160200191610bc9565b820191906000526020600020905b815481529060010190602001808311610bac57829003601f168201915b5050505050905090565b610be5610bde611236565b8383611806565b5050565b7f000000000000000000000000000000000000000000000000000000000000000060085410610c44576040517fd38f962500000000000000000000000000000000000000000000000000000000815260040160405180910390fd5b6000339050600060085490506001600854610c5f9190612d33565b6008819055506000610c6f611972565b90506000606482610c809190612d96565b90506000610c8d82610f0f565b9050610c9985856119b0565b610d5b846009836002811115610cb257610cb16128a9565b5b81548110610cc357610cc2612aff565b5b906000526020600020018054610cd8906129aa565b80601f0160208091040260200160405190810160405280929190818152602001828054610d04906129aa565b8015610d515780601f10610d2657610100808354040283529160200191610d51565b820191906000526020600020905b815481529060010190602001808311610d3457829003601f168201915b50505050506119ce565b7f8a269f26b688e110e9cbd887d163dab35cae678fa353a0292de532c0cac1ecdc8186604051610d8c929190612dc7565b60405180910390a15050505050565b610dac610da6611236565b836112f7565b610deb576040517f08c379a0000000000000000000000000000000000000000000000000000000008152600401610de290612ba0565b60405180910390fd5b610df784848484611a72565b50505050565b6060610e08826111eb565b6000600660008481526020019081526020016000208054610e28906129aa565b80601f0160208091040260200160405190810160405280929190818152602001828054610e54906129aa565b8015610ea15780601f10610e7657610100808354040283529160200191610ea1565b820191906000526020600020905b815481529060010190602001808311610e8457829003601f168201915b505050505090506000610eb2611ace565b90506000815103610ec7578192505050610f0a565b600082511115610efc578082604051602001610ee4929190612e2c565b60405160208183030381529060405292505050610f0a565b610f0584611ae5565b925050505b919050565b600080600090506000610f20610991565b905060005b6003811015610fa357828510158015610f545750818160038110610f4c57610f4b612aff565b5b602002015185105b15610f7657806002811115610f6c57610f6b6128a9565b5b9350505050610fd6565b818160038110610f8957610f88612aff565b5b602002015192508080610f9b90612e50565b915050610f25565b506040517fd272f90400000000000000000000000000000000000000000000000000000000815260040160405180910390fd5b919050565b6000600560008473ffffffffffffffffffffffffffffffffffffffff1673ffffffffffffffffffffffffffffffffffffffff16815260200190815260200160002060008373ffffffffffffffffffffffffffffffffffffffff1673ffffffffffffffffffffffffffffffffffffffff16815260200190815260200160002060009054906101000a900460ff16905092915050565b6000600a60009054906101000a900460ff16905090565b61108e611685565b600073ffffffffffffffffffffffffffffffffffffffff168173ffffffffffffffffffffffffffffffffffffffff16036110fd576040517f08c379a00000000000000000000000000000000000000000000000000000000081526004016110f490612f0a565b60405180910390fd5b61110681611740565b50565b60007f80ac58cd000000000000000000000000000000000000000000000000000000007bffffffffffffffffffffffffffffffffffffffffffffffffffffffff1916827bffffffffffffffffffffffffffffffffffffffffffffffffffffffff191614806111d457507f5b5e139f000000000000000000000000000000000000000000000000000000007bffffffffffffffffffffffffffffffffffffffffffffffffffffffff1916827bffffffffffffffffffffffffffffffffffffffffffffffffffffffff1916145b806111e457506111e382611b4d565b5b9050919050565b6111f481611bb7565b611233576040517f08c379a000000000000000000000000000000000000000000000000000000000815260040161122a90612c52565b60405180910390fd5b50565b600033905090565b816004600083815260200190815260200160002060006101000a81548173ffffffffffffffffffffffffffffffffffffffff021916908373ffffffffffffffffffffffffffffffffffffffff160217905550808273ffffffffffffffffffffffffffffffffffffffff166112b1836109bc565b73ffffffffffffffffffffffffffffffffffffffff167f8c5be1e5ebec7d5bd14f71427d1e84f3dd0314c0f7b2291e5b200ac8c7c3b92560405160405180910390a45050565b600080611303836109bc565b90508073ffffffffffffffffffffffffffffffffffffffff168473ffffffffffffffffffffffffffffffffffffffff16148061134557506113448185610fdb565b5b8061138357508373ffffffffffffffffffffffffffffffffffffffff1661136b84610650565b73ffffffffffffffffffffffffffffffffffffffff16145b91505092915050565b8273ffffffffffffffffffffffffffffffffffffffff166113ac826109bc565b73ffffffffffffffffffffffffffffffffffffffff1614611402576040517f08c379a00000000000000000000000000000000000000000000000000000000081526004016113f990612f9c565b60405180910390fd5b600073ffffffffffffffffffffffffffffffffffffffff168273ffffffffffffffffffffffffffffffffffffffff1603611471576040517f08c379a00000000000000000000000000000000000000000000000000000000081526004016114689061302e565b60405180910390fd5b61147e8383836001611bf8565b8273ffffffffffffffffffffffffffffffffffffffff1661149e826109bc565b73ffffffffffffffffffffffffffffffffffffffff16146114f4576040517f08c379a00000000000000000000000000000000000000000000000000000000081526004016114eb90612f9c565b60405180910390fd5b6004600082815260200190815260200160002060006101000a81549073ffffffffffffffffffffffffffffffffffffffff02191690556001600360008573ffffffffffffffffffffffffffffffffffffffff1673ffffffffffffffffffffffffffffffffffffffff168152602001908152602001600020600082825403925050819055506001600360008473ffffffffffffffffffffffffffffffffffffffff1673ffffffffffffffffffffffffffffffffffffffff16815260200190815260200160002060008282540192505081905550816002600083815260200190815260200160002060006101000a81548173ffffffffffffffffffffffffffffffffffffffff021916908373ffffffffffffffffffffffffffffffffffffffff160217905550808273ffffffffffffffffffffffffffffffffffffffff168473ffffffffffffffffffffffffffffffffffffffff167fddf252ad1be2c89b69c2b068fc378daa952ba7f163c4a11628f55a4df523b3ef60405160405180910390a46116808383836001611bfe565b505050565b61168d611236565b73ffffffffffffffffffffffffffffffffffffffff166116ab610b17565b73ffffffffffffffffffffffffffffffffffffffff1614611701576040517f08c379a00000000000000000000000000000000000000000000000000000000081526004016116f89061309a565b60405180910390fd5b565b60006002600083815260200190815260200160002060009054906101000a900473ffffffffffffffffffffffffffffffffffffffff169050919050565b6000600760009054906101000a900473ffffffffffffffffffffffffffffffffffffffff16905081600760006101000a81548173ffffffffffffffffffffffffffffffffffffffff021916908373ffffffffffffffffffffffffffffffffffffffff1602179055508173ffffffffffffffffffffffffffffffffffffffff168173ffffffffffffffffffffffffffffffffffffffff167f8be0079c531659141344cd1fd0a4f28419497f9722a3daafe3b4186f6b6457e060405160405180910390a35050565b8173ffffffffffffffffffffffffffffffffffffffff168373ffffffffffffffffffffffffffffffffffffffff1603611874576040517f08c379a000000000000000000000000000000000000000000000000000000000815260040161186b90613106565b60405180910390fd5b80600560008573ffffffffffffffffffffffffffffffffffffffff1673ffffffffffffffffffffffffffffffffffffffff16815260200190815260200160002060008473ffffffffffffffffffffffffffffffffffffffff1673ffffffffffffffffffffffffffffffffffffffff16815260200190815260200160002060006101000a81548160ff0219169083151502179055508173ffffffffffffffffffffffffffffffffffffffff168373ffffffffffffffffffffffffffffffffffffffff167f17307eab39ab6107e8899845ad3d59bd9653f200f220920489ca2b5937696c3183604051611965919061231d565b60405180910390a3505050565b6000806000905033428260405160200161198e9392919061318f565b6040516020818303038152906040528051906020012060001c90508091505090565b6119ca828260405180602001604052806000815250611c04565b5050565b6119d782611bb7565b611a16576040517f08c379a0000000000000000000000000000000000000000000000000000000008152600401611a0d9061323e565b60405180910390fd5b80600660008481526020019081526020016000209081611a36919061340a565b507ff8e1a15aba9398e019f0b49df1a4fde98ee17ae345cb5f6b5e2c27f5033e8ce782604051611a66919061263d565b60405180910390a15050565b611a7d84848461138c565b611a8984848484611c5f565b611ac8576040517f08c379a0000000000000000000000000000000000000000000000000000000008152600401611abf9061354e565b60405180910390fd5b50505050565b606060405180602001604052806000815250905090565b6060611af0826111eb565b6000611afa611ace565b90506000815111611b1a5760405180602001604052806000815250611b45565b80611b2484611de6565b604051602001611b35929190612e2c565b6040516020818303038152906040525b915050919050565b60007f01ffc9a7000000000000000000000000000000000000000000000000000000007bffffffffffffffffffffffffffffffffffffffffffffffffffffffff1916827bffffffffffffffffffffffffffffffffffffffffffffffffffffffff1916149050919050565b60008073ffffffffffffffffffffffffffffffffffffffff16611bd983611703565b73ffffffffffffffffffffffffffffffffffffffff1614159050919050565b50505050565b50505050565b611c0e8383611eb4565b611c1b6000848484611c5f565b611c5a576040517f08c379a0000000000000000000000000000000000000000000000000000000008152600401611c519061354e565b60405180910390fd5b505050565b6000611c808473ffffffffffffffffffffffffffffffffffffffff166120d1565b15611dd9578373ffffffffffffffffffffffffffffffffffffffff1663150b7a02611ca9611236565b8786866040518563ffffffff1660e01b8152600401611ccb94939291906135c3565b6020604051808303816000875af1925050508015611d0757506040513d601f19601f82011682018060405250810190611d049190613624565b60015b611d89573d8060008114611d37576040519150601f19603f3d011682016040523d82523d6000602084013e611d3c565b606091505b506000815103611d81576040517f08c379a0000000000000000000000000000000000000000000000000000000008152600401611d789061354e565b60405180910390fd5b805181602001fd5b63150b7a0260e01b7bffffffffffffffffffffffffffffffffffffffffffffffffffffffff1916817bffffffffffffffffffffffffffffffffffffffffffffffffffffffff191614915050611dde565b600190505b949350505050565b606060006001611df5846120f4565b01905060008167ffffffffffffffff811115611e1457611e136126fb565b5b6040519080825280601f01601f191660200182016040528015611e465781602001600182028036833780820191505090505b509050600082602001820190505b600115611ea9578080600190039150507f3031323334353637383961626364656600000000000000000000000000000000600a86061a8153600a8581611e9d57611e9c612d67565b5b04945060008503611e54575b819350505050919050565b600073ffffffffffffffffffffffffffffffffffffffff168273ffffffffffffffffffffffffffffffffffffffff1603611f23576040517f08c379a0000000000000000000000000000000000000000000000000000000008152600401611f1a9061369d565b60405180910390fd5b611f2c81611bb7565b15611f6c576040517f08c379a0000000000000000000000000000000000000000000000000000000008152600401611f6390613709565b60405180910390fd5b611f7a600083836001611bf8565b611f8381611bb7565b15611fc3576040517f08c379a0000000000000000000000000000000000000000000000000000000008152600401611fba90613709565b60405180910390fd5b6001600360008473ffffffffffffffffffffffffffffffffffffffff1673ffffffffffffffffffffffffffffffffffffffff16815260200190815260200160002060008282540192505081905550816002600083815260200190815260200160002060006101000a81548173ffffffffffffffffffffffffffffffffffffffff021916908373ffffffffffffffffffffffffffffffffffffffff160217905550808273ffffffffffffffffffffffffffffffffffffffff16600073ffffffffffffffffffffffffffffffffffffffff167fddf252ad1be2c89b69c2b068fc378daa952ba7f163c4a11628f55a4df523b3ef60405160405180910390a46120cd600083836001611bfe565b5050565b6000808273ffffffffffffffffffffffffffffffffffffffff163b119050919050565b600080600090507a184f03e93ff9f4daa797ed6e38ed64bf6a1f0100000000000000008310612152577a184f03e93ff9f4daa797ed6e38ed64bf6a1f010000000000000000838161214857612147612d67565b5b0492506040810190505b6d04ee2d6d415b85acef8100000000831061218f576d04ee2d6d415b85acef8100000000838161218557612184612d67565b5b0492506020810190505b662386f26fc1000083106121be57662386f26fc1000083816121b4576121b3612d67565b5b0492506010810190505b6305f5e10083106121e7576305f5e10083816121dd576121dc612d67565b5b0492506008810190505b612710831061220c57612710838161220257612201612d67565b5b0492506004810190505b6064831061222f576064838161222557612224612d67565b5b0492506002810190505b600a831061223e576001810190505b80915050919050565b6040518060600160405280600390602082028036833780820191505090505090565b6000604051905090565b600080fd5b600080fd5b60007fffffffff0000000000000000000000000000000000000000000000000000000082169050919050565b6122b28161227d565b81146122bd57600080fd5b50565b6000813590506122cf816122a9565b92915050565b6000602082840312156122eb576122ea612273565b5b60006122f9848285016122c0565b91505092915050565b60008115159050919050565b61231781612302565b82525050565b6000602082019050612332600083018461230e565b92915050565b600081519050919050565b600082825260208201905092915050565b60005b83811015612372578082015181840152602081019050612357565b60008484015250505050565b6000601f19601f8301169050919050565b600061239a82612338565b6123a48185612343565b93506123b4818560208601612354565b6123bd8161237e565b840191505092915050565b600060208201905081810360008301526123e2818461238f565b905092915050565b6000819050919050565b6123fd816123ea565b811461240857600080fd5b50565b60008135905061241a816123f4565b92915050565b60006020828403121561243657612435612273565b5b60006124448482850161240b565b91505092915050565b600073ffffffffffffffffffffffffffffffffffffffff82169050919050565b60006124788261244d565b9050919050565b6124888161246d565b82525050565b60006020820190506124a3600083018461247f565b92915050565b6124b28161246d565b81146124bd57600080fd5b50565b6000813590506124cf816124a9565b92915050565b600080604083850312156124ec576124eb612273565b5b60006124fa858286016124c0565b925050602061250b8582860161240b565b9150509250929050565b60008060006060848603121561252e5761252d612273565b5b600061253c868287016124c0565b935050602061254d868287016124c0565b925050604061255e8682870161240b565b9150509250925092565b600060039050919050565b600081905092915050565b6000819050919050565b612591816123ea565b82525050565b60006125a38383612588565b60208301905092915050565b6000602082019050919050565b6125c581612568565b6125cf8184612573565b92506125da8261257e565b8060005b8381101561260b5781516125f28782612597565b96506125fd836125af565b9250506001810190506125de565b505050505050565b600060608201905061262860008301846125bc565b92915050565b612637816123ea565b82525050565b6000602082019050612652600083018461262e565b92915050565b60006020828403121561266e5761266d612273565b5b600061267c848285016124c0565b91505092915050565b61268e81612302565b811461269957600080fd5b50565b6000813590506126ab81612685565b92915050565b600080604083850312156126c8576126c7612273565b5b60006126d6858286016124c0565b92505060206126e78582860161269c565b9150509250929050565b600080fd5b600080fd5b7f4e487b7100000000000000000000000000000000000000000000000000000000600052604160045260246000fd5b6127338261237e565b810181811067ffffffffffffffff82111715612752576127516126fb565b5b80604052505050565b6000612765612269565b9050612771828261272a565b919050565b600067ffffffffffffffff821115612791576127906126fb565b5b61279a8261237e565b9050602081019050919050565b82818337600083830152505050565b60006127c96127c484612776565b61275b565b9050828152602081018484840111156127e5576127e46126f6565b5b6127f08482856127a7565b509392505050565b600082601f83011261280d5761280c6126f1565b5b813561281d8482602086016127b6565b91505092915050565b600080600080608085870312156128405761283f612273565b5b600061284e878288016124c0565b945050602061285f878288016124c0565b93505060406128708782880161240b565b925050606085013567ffffffffffffffff81111561289157612890612278565b5b61289d878288016127f8565b91505092959194509250565b7f4e487b7100000000000000000000000000000000000000000000000000000000600052602160045260246000fd5b600381106128e9576128e86128a9565b5b50565b60008190506128fa826128d8565b919050565b600061290a826128ec565b9050919050565b61291a816128ff565b82525050565b60006020820190506129356000830184612911565b92915050565b6000806040838503121561295257612951612273565b5b6000612960858286016124c0565b9250506020612971858286016124c0565b9150509250929050565b7f4e487b7100000000000000000000000000000000000000000000000000000000600052602260045260246000fd5b600060028204905060018216806129c257607f821691505b6020821081036129d5576129d461297b565b5b50919050565b7f4552433732313a20617070726f76616c20746f2063757272656e74206f776e6560008201527f7200000000000000000000000000000000000000000000000000000000000000602082015250565b6000612a37602183612343565b9150612a42826129db565b604082019050919050565b60006020820190508181036000830152612a6681612a2a565b9050919050565b7f4552433732313a20617070726f76652063616c6c6572206973206e6f7420746f60008201527f6b656e206f776e6572206f7220617070726f76656420666f7220616c6c000000602082015250565b6000612ac9603d83612343565b9150612ad482612a6d565b604082019050919050565b60006020820190508181036000830152612af881612abc565b9050919050565b7f4e487b7100000000000000000000000000000000000000000000000000000000600052603260045260246000fd5b7f4552433732313a2063616c6c6572206973206e6f7420746f6b656e206f776e6560008201527f72206f7220617070726f76656400000000000000000000000000000000000000602082015250565b6000612b8a602d83612343565b9150612b9582612b2e565b604082019050919050565b60006020820190508181036000830152612bb981612b7d565b9050919050565b600081905092915050565b50565b6000612bdb600083612bc0565b9150612be682612bcb565b600082019050919050565b6000612bfc82612bce565b9150819050919050565b7f4552433732313a20696e76616c696420746f6b656e2049440000000000000000600082015250565b6000612c3c601883612343565b9150612c4782612c06565b602082019050919050565b60006020820190508181036000830152612c6b81612c2f565b9050919050565b7f4552433732313a2061646472657373207a65726f206973206e6f74206120766160008201527f6c6964206f776e65720000000000000000000000000000000000000000000000602082015250565b6000612cce602983612343565b9150612cd982612c72565b604082019050919050565b60006020820190508181036000830152612cfd81612cc1565b9050919050565b7f4e487b7100000000000000000000000000000000000000000000000000000000600052601160045260246000fd5b6000612d3e826123ea565b9150612d49836123ea565b9250828201905080821115612d6157612d60612d04565b5b92915050565b7f4e487b7100000000000000000000000000000000000000000000000000000000600052601260045260246000fd5b6000612da1826123ea565b9150612dac836123ea565b925082612dbc57612dbb612d67565b5b828206905092915050565b6000604082019050612ddc6000830185612911565b612de9602083018461247f565b9392505050565b600081905092915050565b6000612e0682612338565b612e108185612df0565b9350612e20818560208601612354565b80840191505092915050565b6000612e388285612dfb565b9150612e448284612dfb565b91508190509392505050565b6000612e5b826123ea565b91507fffffffffffffffffffffffffffffffffffffffffffffffffffffffffffffffff8203612e8d57612e8c612d04565b5b600182019050919050565b7f4f776e61626c653a206e6577206f776e657220697320746865207a65726f206160008201527f6464726573730000000000000000000000000000000000000000000000000000602082015250565b6000612ef4602683612343565b9150612eff82612e98565b604082019050919050565b60006020820190508181036000830152612f2381612ee7565b9050919050565b7f4552433732313a207472616e736665722066726f6d20696e636f72726563742060008201527f6f776e6572000000000000000000000000000000000000000000000000000000602082015250565b6000612f86602583612343565b9150612f9182612f2a565b604082019050919050565b60006020820190508181036000830152612fb581612f79565b9050919050565b7f4552433732313a207472616e7366657220746f20746865207a65726f2061646460008201527f7265737300000000000000000000000000000000000000000000000000000000602082015250565b6000613018602483612343565b915061302382612fbc565b604082019050919050565b600060208201905081810360008301526130478161300b565b9050919050565b7f4f776e61626c653a2063616c6c6572206973206e6f7420746865206f776e6572600082015250565b6000613084602083612343565b915061308f8261304e565b602082019050919050565b600060208201905081810360008301526130b381613077565b9050919050565b7f4552433732313a20617070726f766520746f2063616c6c657200000000000000600082015250565b60006130f0601983612343565b91506130fb826130ba565b602082019050919050565b6000602082019050818103600083015261311f816130e3565b9050919050565b60008160601b9050919050565b600061313e82613126565b9050919050565b600061315082613133565b9050919050565b6131686131638261246d565b613145565b82525050565b6000819050919050565b613189613184826123ea565b61316e565b82525050565b600061319b8286613157565b6014820191506131ab8285613178565b6020820191506131bb8284613178565b602082019150819050949350505050565b7f45524337323155524953746f726167653a2055524920736574206f66206e6f6e60008201527f6578697374656e7420746f6b656e000000000000000000000000000000000000602082015250565b6000613228602e83612343565b9150613233826131cc565b604082019050919050565b600060208201905081810360008301526132578161321b565b9050919050565b60008190508160005260206000209050919050565b60006020601f8301049050919050565b600082821b905092915050565b6000600883026132c07fffffffffffffffffffffffffffffffffffffffffffffffffffffffffffffffff82613283565b6132ca8683613283565b95508019841693508086168417925050509392505050565b6000819050919050565b60006133076133026132fd846123ea565b6132e2565b6123ea565b9050919050565b6000819050919050565b613321836132ec565b61333561332d8261330e565b848454613290565b825550505050565b600090565b61334a61333d565b613355818484613318565b505050565b5b818110156133795761336e600082613342565b60018101905061335b565b5050565b601f8211156133be5761338f8161325e565b61339884613273565b810160208510156133a7578190505b6133bb6133b385613273565b83018261335a565b50505b505050565b600082821c905092915050565b60006133e1600019846008026133c3565b1980831691505092915050565b60006133fa83836133d0565b9150826002028217905092915050565b61341382612338565b67ffffffffffffffff81111561342c5761342b6126fb565b5b61343682546129aa565b61344182828561337d565b600060209050601f8311600181146134745760008415613462578287015190505b61346c85826133ee565b8655506134d4565b601f1984166134828661325e565b60005b828110156134aa57848901518255600182019150602085019450602081019050613485565b868310156134c757848901516134c3601f8916826133d0565b8355505b6001600288020188555050505b505050505050565b7f4552433732313a207472616e7366657220746f206e6f6e20455243373231526560008201527f63656976657220696d706c656d656e7465720000000000000000000000000000602082015250565b6000613538603283612343565b9150613543826134dc565b604082019050919050565b600060208201905081810360008301526135678161352b565b9050919050565b600081519050919050565b600082825260208201905092915050565b60006135958261356e565b61359f8185613579565b93506135af818560208601612354565b6135b88161237e565b840191505092915050565b60006080820190506135d8600083018761247f565b6135e5602083018661247f565b6135f2604083018561262e565b8181036060830152613604818461358a565b905095945050505050565b60008151905061361e816122a9565b92915050565b60006020828403121561363a57613639612273565b5b60006136488482850161360f565b91505092915050565b7f4552433732313a206d696e7420746f20746865207a65726f2061646472657373600082015250565b6000613687602083612343565b915061369282613651565b602082019050919050565b600060208201905081810360008301526136b68161367a565b9050919050565b7f4552433732313a20746f6b656e20616c7265616479206d696e74656400000000600082015250565b60006136f3601c83612343565b91506136fe826136bd565b602082019050919050565b60006020820190508181036000830152613722816136e6565b905091905056fea264697066735822122007b9be3baa53c5de245a4da1e3f01989a93c34bb84d8e50a8c90a8b0352c0f6264736f6c63430008120033",
  "devdoc": {
    "events": {
      "Approval(address,address,uint256)": {
        "details": "Emitted when `owner` enables `approved` to manage the `tokenId` token."
      },
      "ApprovalForAll(address,address,bool)": {
        "details": "Emitted when `owner` enables or disables (`approved`) `operator` to manage all of its assets."
      },
      "BatchMetadataUpdate(uint256,uint256)": {
        "details": "This event emits when the metadata of a range of tokens is changed. So that the third-party platforms such as NFT market could timely update the images and related attributes of the NFTs."
      },
      "MetadataUpdate(uint256)": {
        "details": "This event emits when the metadata of a token is changed. So that the third-party platforms such as NFT market could timely update the images and related attributes of the NFT."
      },
      "Transfer(address,address,uint256)": {
        "details": "Emitted when `tokenId` token is transferred from `from` to `to`."
      }
    },
    "kind": "dev",
    "methods": {
      "approve(address,uint256)": {
        "details": "See {IERC721-approve}."
      },
      "balanceOf(address)": {
        "details": "See {IERC721-balanceOf}."
      },
      "getApproved(uint256)": {
        "details": "See {IERC721-getApproved}."
      },
      "isApprovedForAll(address,address)": {
        "details": "See {IERC721-isApprovedForAll}."
      },
      "name()": {
        "details": "See {IERC721Metadata-name}."
      },
      "owner()": {
        "details": "Returns the address of the current owner."
      },
      "ownerOf(uint256)": {
        "details": "See {IERC721-ownerOf}."
      },
      "renounceOwnership()": {
        "details": "Leaves the contract without owner. It will not be possible to call `onlyOwner` functions. Can only be called by the current owner. NOTE: Renouncing ownership will leave the contract without an owner, thereby disabling any functionality that is only available to the owner."
      },
      "safeTransferFrom(address,address,uint256)": {
        "details": "See {IERC721-safeTransferFrom}."
      },
      "safeTransferFrom(address,address,uint256,bytes)": {
        "details": "See {IERC721-safeTransferFrom}."
      },
      "setApprovalForAll(address,bool)": {
        "details": "See {IERC721-setApprovalForAll}."
      },
      "supportsInterface(bytes4)": {
        "details": "See {IERC165-supportsInterface}"
      },
      "symbol()": {
        "details": "See {IERC721Metadata-symbol}."
      },
      "tokenURI(uint256)": {
        "details": "See {IERC721Metadata-tokenURI}."
      },
      "transferFrom(address,address,uint256)": {
        "details": "See {IERC721-transferFrom}."
      },
      "transferOwnership(address)": {
        "details": "Transfers ownership of the contract to a new account (`newOwner`). Can only be called by the current owner."
      }
    },
    "version": 1
  },
  "userdoc": {
    "kind": "user",
    "methods": {},
    "version": 1
  },
  "storageLayout": {
    "storage": [
      {
        "astId": 166,
        "contract": "contracts/MadWizard.sol:MadWizard",
        "label": "_name",
        "offset": 0,
        "slot": "0",
        "type": "t_string_storage"
      },
      {
        "astId": 168,
        "contract": "contracts/MadWizard.sol:MadWizard",
        "label": "_symbol",
        "offset": 0,
        "slot": "1",
        "type": "t_string_storage"
      },
      {
        "astId": 172,
        "contract": "contracts/MadWizard.sol:MadWizard",
        "label": "_owners",
        "offset": 0,
        "slot": "2",
        "type": "t_mapping(t_uint256,t_address)"
      },
      {
        "astId": 176,
        "contract": "contracts/MadWizard.sol:MadWizard",
        "label": "_balances",
        "offset": 0,
        "slot": "3",
        "type": "t_mapping(t_address,t_uint256)"
      },
      {
        "astId": 180,
        "contract": "contracts/MadWizard.sol:MadWizard",
        "label": "_tokenApprovals",
        "offset": 0,
        "slot": "4",
        "type": "t_mapping(t_uint256,t_address)"
      },
      {
        "astId": 186,
        "contract": "contracts/MadWizard.sol:MadWizard",
        "label": "_operatorApprovals",
        "offset": 0,
        "slot": "5",
        "type": "t_mapping(t_address,t_mapping(t_address,t_bool))"
      },
      {
        "astId": 1217,
        "contract": "contracts/MadWizard.sol:MadWizard",
        "label": "_tokenURIs",
        "offset": 0,
        "slot": "6",
        "type": "t_mapping(t_uint256,t_string_storage)"
      },
      {
        "astId": 7,
        "contract": "contracts/MadWizard.sol:MadWizard",
        "label": "_owner",
        "offset": 0,
        "slot": "7",
        "type": "t_address"
      },
      {
        "astId": 3002,
        "contract": "contracts/MadWizard.sol:MadWizard",
        "label": "s_tokenCounter",
        "offset": 0,
        "slot": "8",
        "type": "t_uint256"
      },
      {
        "astId": 3010,
        "contract": "contracts/MadWizard.sol:MadWizard",
        "label": "s_genTokenUris",
        "offset": 0,
        "slot": "9",
        "type": "t_array(t_string_storage)dyn_storage"
      },
      {
        "astId": 3012,
        "contract": "contracts/MadWizard.sol:MadWizard",
        "label": "s_initialized",
        "offset": 0,
        "slot": "10",
        "type": "t_bool"
      }
    ],
    "types": {
      "t_address": {
        "encoding": "inplace",
        "label": "address",
        "numberOfBytes": "20"
      },
      "t_array(t_string_storage)dyn_storage": {
        "base": "t_string_storage",
        "encoding": "dynamic_array",
        "label": "string[]",
        "numberOfBytes": "32"
      },
      "t_bool": {
        "encoding": "inplace",
        "label": "bool",
        "numberOfBytes": "1"
      },
      "t_mapping(t_address,t_bool)": {
        "encoding": "mapping",
        "key": "t_address",
        "label": "mapping(address => bool)",
        "numberOfBytes": "32",
        "value": "t_bool"
      },
      "t_mapping(t_address,t_mapping(t_address,t_bool))": {
        "encoding": "mapping",
        "key": "t_address",
        "label": "mapping(address => mapping(address => bool))",
        "numberOfBytes": "32",
        "value": "t_mapping(t_address,t_bool)"
      },
      "t_mapping(t_address,t_uint256)": {
        "encoding": "mapping",
        "key": "t_address",
        "label": "mapping(address => uint256)",
        "numberOfBytes": "32",
        "value": "t_uint256"
      },
      "t_mapping(t_uint256,t_address)": {
        "encoding": "mapping",
        "key": "t_uint256",
        "label": "mapping(uint256 => address)",
        "numberOfBytes": "32",
        "value": "t_address"
      },
      "t_mapping(t_uint256,t_string_storage)": {
        "encoding": "mapping",
        "key": "t_uint256",
        "label": "mapping(uint256 => string)",
        "numberOfBytes": "32",
        "value": "t_string_storage"
      },
      "t_string_storage": {
        "encoding": "bytes",
        "label": "string",
        "numberOfBytes": "32"
      },
      "t_uint256": {
        "encoding": "inplace",
        "label": "uint256",
        "numberOfBytes": "32"
      }
    }
  }
}